:020000040000FA
:100000000002040000000000F40400002E050000BF
:1000100066050000100500004A0500005C070000AE
:10002000820500005C0700005C0700005C07000020
:100030005C0700005C0700005C0700005C07000034
:100040005C0700005C0700005C0700005C07000024
:100050005C0700005C0700005C0700005C07000014
:100060005C0700005C070000E20600005C0700007F
:100070005C0700005C0700005C0700005C070000F4
:100080005C0700005C0700005C0700005C070000E4
:100090005C0700005C0700005C0700005C070000D4
:1000A0005C0700005C0700005C0700005C070000C4
:1000B0005C0700005C0700005C0700005C070000B4
:1000C0005C0700005C0700005C0700005C070000A4
:1000D0005C0700005C0700005C0700005C07000094
:1000E0005C0700005C0700005C0700005C07000084
:1000F0005C0700005C0700005C0700005C07000074
:100100005C0700005C0700005C0700005C07000063
:100110005C0700005C0700005C0700005C07000053
:100120005C0700005C0700005C0700005C07000043
:100130005C0700005C0700005C0700005C07000033
:100140005C0700005C0700005C0700005C07000023
:100150005C0700005C0700005C0700005C07000013
:100160005C0700005C0700005C0700005C07000003
:100170005C0700005C0700005C0700005C070000F3
:100180005C0700005C0700005C0700005C070000E3
:100190005C0700005C0700005C0700005C070000D3
:1001A0005C0700005C0700005C0700005C070000C3
:1001B0005C0700005C0700005C0700005C070000B3
:1001C0005C0700005C0700005C07000024070000DB
:1001D0005C070000E80500001A0600004C0600005D
:1001E0007E060000B00600005C0700005C0700000F
:1001F0005C0700005C0700005C0700005C07000073
:100200005C0700005C0700005C0700005C07000062
:100210005C0700005C0700005C0700005C07000052
:100220005C0700005C0700005C0700005C07000042
:100230005C0700005C0700005C0700005C07000032
:100240005C0700005C0700005C0700005C07000022
:100250005C0700005C0700005C0700005C07000012
:100260005C0700005C0700005C0700005C07000002
:100270005C0700005C0700005C0700005C070000F2
:100280005C0700005C0700005C0700005C070000E2
:100290005C0700005C0700005C0700005C070000D2
:1002A0005C0700005C0700005C0700005C070000C2
:1002B0005C0700005C0700005C0700005C070000B2
:1002C0005C0700005C0700005C0700005C070000A2
:1002D0005C0700005C0700005C0700005C07000092
:1002E0005C0700005C0700005C0700005C07000082
:1002F0005C0700005C0700005C0700005C07000072
:100300005C0700005C0700005C0700005C07000061
:100310005C0700005C0700005C0700005C07000051
:100320005C070000FFFFFF00FFFFFF00FFFFFF0073
:10033000FFFFFF00FFFFFF00FFFFFF00FFFFFF00C9
:10034000FFFFFF00FFFFFF00FFFFFF00FFFFFF00B9
:10035000FFFFFF00FFFFFF00FFFFFF00FFFFFF00A9
:10036000FFFFFF00FFFFFF00FFFFFF00FFFFFF0099
:10037000FFFFFF00FFFFFF00FFFFFF00FFFFFF0089
:10038000FFFFFF00FFFFFF00FFFFFF00FFFFFF0079
:10039000FFFFFF00FFFFFF00FFFFFF00FFFFFF0069
:1003A000FFFFFF00FFFFFF00FFFFFF00FFFFFF0059
:1003B000FFFFFF00FFFFFF00FFFFFF00FFFFFF0049
:1003C000FFFFFF00FFFFFF00FFFFFF00FFFFFF0039
:1003D000FFFFFF00FFFFFF00FFFFFF00FFFFFF0029
:1003E000FFFFFF00FFFFFF00FFFFFF00FFFFFF0019
:1003F000FFFFFF00FFFFFF00FFFFFF00FFFFFF0009
:100400008FE422000EFF27000E018800000020006C
:100410000000E000020032000001200020028800FD
:10042000140007000F0307000000E00003003A007B
:10043000000221000100200002003700000020001F
:1004400001002000810F70004220AE000F00070065
:10045000100020000000E0004220AE0096030200E1
:10046000000000004E280200000000000040DA00FA
:100470000000FE00A07520000000E0000200320035
:10048000002020009001880000000600A1028800E2
:10049000800478000000EB001F003700E284440075
:1004A00054A0B4009905BA00E284440054A0B400FA
:1004B0009906BA00E284440054A0B4000006EB00A0
:1004C000476FDE00FD07B200AE018800636CE100FB
:1004D00003003A000AD801000000EB000E003700CC
:1004E000606CE10008003A00004DEB000A05E800EE
:1004F000020039003420EC000AF0A0008B05E9006E
:10050000F9FF3E00040037006168E100010032009D
:100510000086EB000B00070019C7BA001905BA00E6
:100520000E04E00003003A000A00E000DBFF3A009E
:1005300000000600FE07B200AE0288008A047800C0
:10054000F5FF37000CD0A300E20F4D001C003B006C
:1005500089027800354DBA000A05E800020039002A
:100560003420EC000AF0A0008B05E9000F003200F7
:10057000254DBA000A05E800020039003420EC00DD
:100580000AF0A0008B05E900080032000C00E00032
:100590000600320015CDBA000A05E8000200390055
:1005A0003420EC000AF0A0008B05E9008984E80003
:1005B00054A0B4000B00E000E2FF3A000000060087
:1005C0009902BA00055D78008B05E900F7FF32005B
:1005D000C82ADE00055D78008B05E900F3FF3200D4
:1005E0000C00E000F1FF320019DDBA00EEFF370029
:1005F0006100E10001003200100005005400F80025
:1006000020102000A002880000F92B001000BA0082
:100610005400F9000700260000F0A6008703D1006F
:100620000703780001C4FE000003EB000120200056
:100630009101880081BC2C00111303008703E9009D
:10064000FDFF3A0000F0A7000000050000F0A00048
:1006500080C4FE0086037800F3FF37000408200002
:10066000010037000002EB006100E10001003200F0
:10067000100005003200F8003400F8008102780014
:10068000930188003200BE000100E0000C0032003F
:100690000470A70000F0A00032037800C733DE002A
:1006A000848343004220AF008703E800A70188004D
:1006B000F607B2007F30E100040032002000200085
:1006C0003400F9003200F900000006008100E90062
:1006D0000500E00003003A00018009003210030029
:1006E000E8FF37000180090032900300D561AE00B9
:1006F000E4FF370030002000F1FF370050052000F4
:10070000B00E8800A00A2000B00E8800D3E1A80037
:100710000000060050052000B00E8800A00A20004E
:10072000B00E8800D3E1A90000000600000006001A
:10073000D848040000000000924B040000000000B4
:1007400044460400000000001644040000000000BD
:100750003E44040000000000DC4A040000000000E9
:10076000964B040000000000144B04000000000041
:10077000064A0400000000002C47040000000000AE
:100780007447040000000000A246040000000000BE
:10079000204B0400000000009A4B04000000000001
:1007A0009E4B040000000000E84804000000000028
:1007B000AC4B040000000000AE4B04000000000041
:1007C000B04B040000000000B24B04000000000029
:1007D000B44B040000000000B64B04000000000011
:1007E000B84B040000000000BA4B040000000000F9
:1007F000BC4B040000000000BE4B040000000000E1
:10080000C04B040000000000A24B040000000000E8
:10081000B84A0400000000001E4A04000000000066
:10082000A442040000000000BC45040000000000D9
:100830002A4A0400000000009C1704000000000089
:100840007242040000000000364A0400000000006C
:100850000849040000000000F848040000000000FF
:100860008E44040000000000B444040000000000B6
:10087000424A040000000000984504000000000007
:10088000DA440400000000005A48040000000000A0
:10089000C0460400000000006C4804000000000096
:1008A0007E48040000000000184904000000000019
:1008B00028490400000000009048040000000000E7
:1008C0008A47040000000000A04704000000000068
:1008D0004E4A040000000000EE2E0400000000005C
:1008E0005A4A040000000000664A040000000000AC
:1008F0008236040000000000E43A0400000000001A
:10090000724A040000000000923104000000000060
:100910007E4A040000000000383A04000000000095
:100920001A3C040000000000823B040000000000AC
:10093000E44A040000000000C44B04000000000072
:100940008A4A040000000000C64B040000000000BA
:10095000584904000000000068490400000000003D
:100960007849040000000000004504000000000079
:1009700026450400000000004C4504000000000073
:100980007245040000000000FC4A04000000000062
:100990009849040000000000CC380400000000006A
:1009A0002A39040000000000AA37040000000000FB
:1009B0005C41040000000000563E040000000000FE
:1009C0002E210400000000008E3A04000000000008
:1009D0003A0804000000000036080400000000008F
:1009E00034080400000000003600F800809FBE00BC
:1009F000829FBE00849FBE00869FBE00C028A900C3
:100A00000000EB00292307004F03BE004F02BE0089
:100A10004F01BE004F00BE003600F9000040060046
:100A20003600F800809FBE00829FBE00849FBE00FB
:100A3000869FBE00C9220700C048A9001000200000
:100A40001A2307004F03BE004F02BE004F01BE0035
:100A50004F00BE003600F900004006003600F800E6
:100A6000809FBE00829FBE00849FBE00869FBE0006
:100A7000C068A900200020000C2307004F03BE001F
:100A80004F02BE004F01BE004F00BE003600F9000D
:100A9000004006003600F800809FBE00829FBE0026
:100AA000849FBE00869FBE00C088A9003000200041
:100AB000FE2207004F03BE004F02BE004F01BE00E2
:100AC0004F00BE003600F900004006003600F80076
:100AD000809FBE00829FBE00849FBE00869FBE0096
:100AE000C608A90070002000F02207004F03BE00D6
:100AF0004F02BE004F01BE004F00BE003600F9009D
:100B0000004006003600F800809FBE00829FBE00B5
:100B1000849FBE00869FBE00C508AB000300320064
:100B2000C508A900C0002000E0220700C4A8AB004F
:100B300003003200C4A8A90090002000DB220700B7
:100B4000C488AB0003003200C488A900A0002000C4
:100B5000D6220700C408AB0003003200C408A90075
:100B6000B0002000D1220700FFFF37003600F80058
:100B7000809FBE00829FBE00849FBE00869FBE00F5
:100B80003200F8003400F80010002000A0018800B6
:100B90000020200000D0FE004061800051808000D5
:100BA0000100E00001003200010001000D28A90051
:100BB0003400F9003200F9004F03BE004F02BE00BE
:100BC0004F01BE004F00BE003600F9000040060095
:100BD0003600F800809FBE00829FBE00849FBE004A
:100BE000869FBE003200F8003400F800100020009C
:100BF000A00188000020200000D0FE00606180007D
:100C0000418080000100E00001003200010001008D
:100C10000D68A9003400F9003200F9004F03BE004E
:100C20004F02BE004F01BE004F00BE003600F9006B
:100C3000004006003600F800809FBE00829FBE0084
:100C4000849FBE00869FBE003200F8003400F8008A
:100C500010002000A00188000020200000D0FE002D
:100C600070618000318080000100E00001003200EE
:100C7000010001000D88A9003400F9003200F900DC
:100C80004F03BE004F02BE004F01BE004F00BE002A
:100C90003600F900004006003600F800809FBE00D4
:100CA000829FBE00849FBE00869FBE003200F80077
:100CB0003400F80010002000A0018800002020006F
:100CC00000D0FE0080618000218080000100E000F3
:100CD00001003200010001000DA8A9003400F90054
:100CE0003200F9004F03BE004F02BE004F01BE00AC
:100CF0004F00BE003600F900004006003600F80044
:100D0000809FBE00829FBE00849FBE00869FBE0063
:100D10003200F8003400F80010002000A001880024
:100D20000020200000D0FE00906180001180800033
:100D30000100E00001003200010001000DC8A9001F
:100D40003400F9003200F9004F03BE004F02BE002C
:100D50004F01BE004F00BE003600F9000040060003
:100D60003600F800809FBE00829FBE00849FBE00B8
:100D7000869FBE003200F8003400F800100020000A
:100D8000A00188000020200000D0FE00A0618000AB
:100D9000018080000100E00001003200010001003C
:100DA0000DE8A9003400F9003200F9004F03BE003D
:100DB0004F02BE004F01BE004F00BE003600F900DA
:100DC000004006003600F800809FBE00829FBE00F3
:100DD000849FBE00869FBE003200F8003400F800F9
:100DE00010002000A00188000020200000D0FE009C
:100DF0000182AB0006003A00B61C07006000B80094
:100E0000A05B8900B15B8900D05B8900E15B890050
:100E100004C2AB0002003200C010800004C2A9006E
:100E20000208A9000182A8003400F9003200F9008C
:100E30004F03BE004F02BE004F01BE004F00BE0078
:100E40003600F900004006003600F800809FBE0022
:100E5000829FBE00849FBE00869FBE003200F800C5
:100E60003400F80010002000A001880000202000BD
:100E700000D0FE006060800070608000C060800074
:100E8000D060800040618000BD1607006E1507002D
:100E9000AC2007000D28A9003400F9003200F90049
:100EA0004F03BE004F02BE004F01BE004F00BE0008
:100EB0003600F900004006000040DA000000FE00A5
:100EC00000C0DA000000060044002000EC87470064
:100ED000881F78008E1F78006E8757000E047800F8
:100EE000041F7800000F780002ACBE006E8057002F
:100EF000D1BF9F00F2FF07004F077800180078006D
:100F0000980090004F047800CF00B1000000060068
:100F100000C0DA000000060011002000EC87470046
:100F20008E1F78006C875700A1BF9F00002F7800AC
:100F30006C805700F6FF07001E0078004F0778000E
:100F4000CF00B1000000060000C0DA00000006007B
:100F5000EC8747008E1F7800E20F500034003E00FF
:100F600030728100E10F500003003200E20F5000A8
:100F700011003A000C003700832320000300E0003A
:100F800001003A000040DA003802E20002003500B9
:100F90004022EF0039E2A80038A2AB000D003A0071
:100FA00038A2A8000B003700032620000300E00051
:100FB00001003A000040DA006002E2000200350061
:100FC0006822EF0061E2A80060A2AB0001003A00D5
:100FD00060A2A800820178000B0037003102FB00FC
:100FE000E10F500004003A003E82AB00FEFF3A00E1
:100FF00044128800030037006682AB00FEFF3A000F
:10100000841388008301E9000300E000F3FF3A0045
:10101000E10F500003003A003EA2AB00FEFF320099
:101020000C00370066A2AB00FEFF3200090037005B
:101030006C87570033002000031F7800000F7800F2
:10104000D2BF9F00C1BF9F006C805700BEFF07004A
:101050005FB997004F07780002007800CF00B10019
:1010600000000600000005000000060010007800E7
:10107000B7FF3700889FBE00000478008A9FBE003B
:101080000000EB00810578000800E0001A00320043
:10109000180090000058A3000A003200EA0444003F
:1010A0006C05440019007800000000009A0F500001
:1010B00029003E00740044000008EB00000DEB0026
:1010C000800CEB007E054400090220008884440067
:1010D0001A0278000000000019007800800F52000A
:1010E00011003900800CEB000000EB00000DEB005C
:1010F0000B00E00005003A00000000004F05BE00B4
:10110000000000004F04BE000000060000000000C8
:101110001800780080FF07004F05BE004F04BE0096
:1011200000000600F9FF3700000252001100200005
:10113000CFA2DE00612BB9001800780062FF070023
:10114000800CEB000000EB00000DEB000B00E0005A
:10115000E9FF3200EDFF37000001EB00B809900015
:101160008200780008007800030001000080EB0096
:101170001900E000E0FF3200740044000008EB00BA
:10118000000DEB00800CEB00CEFF3700466C00003A
:10119000657800004E35000035300000300000005A
:1011A00000000000A24B000001F00000B84A00005F
:1011B00002000000A24B000003D80000A24B000078
:1011C00004000000A24B000005000000A24B00003C
:1011D00006000000A24B000007000000A24B000028
:1011E00008000000A24B000009000000A24B000014
:1011F0000A000000A24B00000B000000A24B000000
:101200000C000000A24B00000D000000A24B0000EB
:101210000E000000A24B00000F000000A24B0000D7
:1012200010000000A24B000011000000A24B0000C3
:1012300012000000A24B000013000000A24B0000AF
:1012400014000000A24B000015000000A24B00009B
:1012500016000000A24B000017000000A24B000087
:1012600018000000A24B000019B000001E4A000048
:101270001ABC0000A44200001BFC0000BC4500009A
:101280001C000000A24B00001D000000A24B00004B
:101290001E000000A24B00001F000000A24B000037
:1012A00020B000002A4A000021000000A24B0000EC
:1012B00022000000A24B000023000000A24B00000F
:1012C00024000000A24B000025000000A24B0000FB
:1012D00026000000A24B000027000000A24B0000E7
:1012E00028000000A24B000029000000A24B0000D3
:1012F0002A000000A24B00002B000000A24B0000BF
:101300002C000000A24B00002D0000009C170000E4
:101310002E000000A24B00002F000000A24B000096
:1013200030BC00007242000031000000A24B0000FF
:1013300032000000A24B000033000000A24B00006E
:1013400034000000A24B000035000000A24B00005A
:1013500036000000A24B000037000000A24B000046
:1013600038000000A24B000039000000A24B000032
:101370003A000000364A00003BE000000849000047
:101380003C000000A24B00003D000000A24B00000A
:101390003E000000A24B00003F000000A24B0000F6
:1013A00040000000A24B000041000000A24B0000E2
:1013B00042000000A24B000043000000A24B0000CE
:1013C00044000000A24B000045000000A24B0000BA
:1013D00046A00000F848000047000000A24B0000B3
:1013E00048000000A24B000049000000A24B000092
:1013F0004AE00000F84800004B000000A24B00004B
:101400004C000000A24B00004D000000A24B000069
:101410004E000000A24B00004F000000A24B000055
:1014200050000000A24B000051000000A24B000041
:1014300052000000A24B000053000000A24B00002D
:1014400054000000A24B000055A00000F848000026
:1014500056000000A24B000057E00000F8480000D2
:1014600058000000A24B000059000000A24B0000F1
:101470005A000000A24B00005BA00000F8480000EA
:101480005C000000A24B00005DE00000F848000096
:101490005E000000A24B00005F000000A24B0000B5
:1014A00060000000A24B000061000000A24B0000A1
:1014B00062000000A24B000063000000A24B00008D
:1014C00064000000A24B000065000000A24B000079
:1014D00066000000A24B000067000000A24B000065
:1014E00068000000A24B000069000000A24B000051
:1014F0006A000000A24B00006BE00000F84800000A
:101500006C000000A24B00006D000000A24B000028
:101510006E000000A24B00006F000000A24B000014
:1015200070000000A24B000071000000A24B000000
:1015300072000000A24B000073000000A24B0000EC
:1015400074000000A24B000075000000A24B0000D8
:1015500076000000A24B000077000000A24B0000C4
:1015600078000000A24B000079F00000F84800006D
:101570007AF00000B84A00007BF00000B84A000092
:101580007CF00000B84A00007DF00000B84A00007E
:101590007EF00000B84A00007F000000B84A00005A
:1015A00080000000A24B000081F00000B84A00005B
:1015B00082000000A24B000083000000A24B00004C
:1015C00084000000A24B000085000000A24B000038
:1015D00086AC00008E44000087AC0000B4440000DC
:1015E00088A00000F848000089A00000F84800002A
:1015F0008A000000F84800008BA00000F8480000B6
:101600008CA00000F84800008DA00000F848000001
:101610008EA00000F84800008FA00000F8480000ED
:1016200090A00000F848000091A00000F8480000D9
:1016300092000000A24B000093000000A24B0000AB
:1016400094000000A24B000095A00000F8480000A4
:1016500096A00000F848000097A00000F84800009D
:1016600098000000424A000099BC00009845000024
:101670009ABC0000DA4400009BBC00005A480000FD
:101680009CBC0000C04600009DBC00006C480000EF
:101690009EBC00007E4800009F000000A24B00009E
:1016A000A0000000A24B0000A1B0000018490000FB
:1016B000A2B0000028490000A3000000A24B0000D7
:1016C000A4000000A24B0000A5000000A24B0000F7
:1016D000A6000000A24B0000A7A00000F8480000F0
:1016E000A8000000A24B0000A9000000A24B0000CF
:1016F000AA000000A24B0000AB000000A24B0000BB
:10170000AC000000A24B0000ADBC000090480000FF
:10171000AE000000A24B0000AF000000A24B000092
:10172000B0000000A24B0000B1000000A24B00007E
:10173000B2000000A24B0000B3000000A24B00006A
:10174000B4000000A24B0000B5000000A24B000056
:10175000B6000000A24B0000B7000000A24B000042
:10176000B8000000A24B0000B9000000A24B00002E
:10177000BA000000A24B0000BB000000A24B00001A
:10178000BC000000A24B0000BD000000A24B000006
:10179000BE000000A24B0000BF000000A24B0000F2
:1017A000C0000000A24B0000C1000000A24B0000DE
:1017B000C2000000A24B0000C3B00000F8480000C7
:1017C000C4B00000F8480000C5B00000B84A0000EE
:1017D000C6B00000B84A0000C7B00000F8480000DA
:1017E000C8B00000F8480000C9000000A24B00008B
:1017F000CA000000A24B0000CB000000A24B00007A
:10180000CC000000A24B0000CD000000A24B000065
:10181000CE000000A24B0000CF000000A24B000051
:10182000D00000008A470000D1000000A24B000059
:10183000D2000000A24B0000D3000000F8480000D6
:10184000D4000000F8480000D5000000F84800006F
:10185000D6000000F8480000D7000000F84800005B
:10186000D8000000F8480000D9000000F848000047
:10187000DA000000F8480000DB000000F848000033
:10188000DC000000F8480000DD000000F84800001F
:10189000DE000000F8480000DF000000A24B00005E
:1018A000E0000000A24B0000E1BC0000A0470000E7
:1018B000E2000000A24B0000E3000000A24B000089
:1018C000E4000000A24B0000E5000000A24B000075
:1018D000E6000000A24B0000E7000000A24B000061
:1018E000E8000000A24B0000E9000000A24B00004D
:1018F000EA000000A24B0000EB000000A24B000039
:10190000EC000000A24B0000ED000000A24B000024
:10191000EEB000004E4A0000EFBC0000EE2E0000CA
:10192000F0D000005A4A0000F1D00000664A0000E2
:10193000F2BC000082360000F3000000A24B000061
:10194000F4000000A24B0000F5000000A24B0000D4
:10195000F6BC0000E43A0000F7000000A24B0000D3
:10196000F8F00000724A0000F9000000A24B0000ED
:10197000FA000000A24B0000FBDC000092310000E6
:10198000FCF000007E4A0000FDBC0000383A000078
:10199000FE000000A24B0000FF000000A24B000070
:1019A00000000000C1C0000081C100004001000033
:1019B00001C30000C00300008002000041C200001B
:1019C00001C60000C00600008007000041C70000FB
:1019D00000050000C1C5000081C4000040040000F3
:1019E00001CC0000C00C0000800D000041CD0000C3
:1019F000000F0000C1CF000081CE0000400E0000AB
:101A0000000A0000C1CA000081CB0000400B0000AA
:101A100001C90000C00900008008000041C80000A2
:101A200001D80000C01800008019000041D9000052
:101A3000001B0000C1DB000081DA0000401A00003A
:101A4000001E0000C1DE000081DF0000401F00001A
:101A500001DD0000C01D0000801C000041DC000012
:101A600000140000C1D4000081D500004015000022
:101A700001D70000C01700008016000041D600000A
:101A800001D20000C01200008013000041D300000A
:101A900000110000C1D1000081D000004010000002
:101AA00001F00000C03000008031000041F1000072
:101AB00000330000C1F3000081F20000403200005A
:101AC00000360000C1F6000081F70000403700003A
:101AD00001F50000C03500008034000041F4000032
:101AE000003C0000C1FC000081FD0000403D000002
:101AF00001FF0000C03F0000803E000041FE0000EA
:101B000001FA0000C03A0000803B000041FB0000E9
:101B100000390000C1F9000081F8000040380000E1
:101B200000280000C1E8000081E900004029000011
:101B300001EB0000C02B0000802A000041EA0000F9
:101B400001EE0000C02E0000802F000041EF0000D9
:101B5000002D0000C1ED000081EC0000402C0000D1
:101B600001E40000C02400008025000041E50000E1
:101B700000270000C1E7000081E6000040260000C9
:101B800000220000C1E2000081E3000040230000C9
:101B900001E10000C02100008020000041E00000C1
:101BA00001A00000C06000008061000041A10000B1
:101BB00000630000C1A3000081A200004062000099
:101BC00000660000C1A6000081A700004067000079
:101BD00001A50000C06500008064000041A4000071
:101BE000006C0000C1AC000081AD0000406D000041
:101BF00001AF0000C06F0000806E000041AE000029
:101C000001AA0000C06A0000806B000041AB000028
:101C100000690000C1A9000081A800004068000020
:101C200000780000C1B8000081B9000040790000D0
:101C300001BB0000C07B0000807A000041BA0000B8
:101C400001BE0000C07E0000807F000041BF000098
:101C5000007D0000C1BD000081BC0000407C000090
:101C600001B40000C07400008075000041B50000A0
:101C700000770000C1B7000081B600004076000088
:101C800000720000C1B2000081B300004073000088
:101C900001B10000C07100008070000041B0000080
:101CA00000500000C19000008191000040510000F0
:101CB00001930000C05300008052000041920000D8
:101CC00001960000C05600008057000041970000B8
:101CD00000550000C19500008194000040540000B0
:101CE000019C0000C05C0000805D0000419D000080
:101CF000005F0000C19F0000819E0000405E000068
:101D0000005A0000C19A0000819B0000405B000067
:101D100001990000C059000080580000419800005F
:101D200001880000C048000080490000418900008F
:101D3000004B0000C18B0000818A0000404A000077
:101D4000004E0000C18E0000818F0000404F000057
:101D5000018D0000C04D0000804C0000418C00004F
:101D600000440000C184000081850000404500005F
:101D700001870000C0470000804600004186000047
:101D800001820000C0420000804300004183000047
:101D900000410000C181000081800000404000003F
:101DA000000700000E0900001C1B000012150000B7
:101DB000383F000036310000242300002A2D0000A7
:101DC000707700007E7900006C6B00006265000097
:101DD000484F000046410000545300005A5D000087
:101DE000E0E70000EEE90000FCFB0000F2F5000077
:101DF000D8DF0000D6D10000C4C30000CACD000067
:101E0000909700009E9900008C8B00008285000056
:101E1000A8AF0000A6A10000B4B30000BABD000046
:101E2000C7C00000C9CE0000DBDC0000D5D2000036
:101E3000FFF80000F1F60000E3E40000EDEA000026
:101E4000B7B00000B9BE0000ABAC0000A5A2000016
:101E50008F88000081860000939400009D9A000006
:101E600027200000292E00003B3C000035320000F6
:101E70001F18000011160000030400000D0A0000E6
:101E800057500000595E00004B4C000045420000D6
:101E90006F68000061660000737400007D7A0000C6
:101EA000898E000087800000959200009B9C0000B6
:101EB000B1B60000BFB80000ADAA0000A3A40000A6
:101EC000F9FE0000F7F00000E5E20000EBEC000096
:101ED000C1C60000CFC80000DDDA0000D3D4000086
:101EE000696E000067600000757200007B7C000076
:101EF000515600005F5800004D4A00004344000066
:101F0000191E000017100000050200000B0C000055
:101F1000212600002F2800003D3A00003334000045
:101F20004E49000040470000525500005C5B000035
:101F300076710000787F00006A6D00006463000025
:101F40003E39000030370000222500002C2B000015
:101F500006010000080F00001A1D00001413000005
:101F6000AEA90000A0A70000B2B50000BCBB0000F5
:101F700096910000989F00008A8D000084830000E5
:101F8000DED90000D0D70000C2C50000CCCB0000D5
:101F9000E6E10000E8EF0000FAFD0000F4F30000C5
:101FA000F00100001A3C0000F1010000823B00003B
:101FB000F8010000E44A0000FB130000C44B0000DD
:101FC000FC0100008A4A000030030000C64B0000FC
:101FD000EF030000C64B0000F2030000C64B0000F8
:101FE000FD040000C64B00001A030000C64B0000B1
:101FF000F6030000C64B00002D010000C64B000098
:10200000964B0000144B0000064A00002C470000CD
:1020100074470000A2460000204B00009A4B0000CD
:102020009E4B0000E8480000200100008F010000E6
:1020300000000000200100008F01000000000000EF
:10204000E42D000020000000800000003810000097
:102050000200000082000000FFFF000032100000BC
:1020600006000000800000000010000016000000C4
:10207000800000003A100000020000008000000014
:10208000B829000078010000800000002A1000003C
:1020900008000000800000004A1E000076040000D6
:1020A00080000000422E00000400000082000000BA
:1020B000FFFFFF00FF000000A02500001802000045
:1020C000800000003C1000000200000080000000C2
:1020D000682D00003800000082000000323032001D
:1020E000342D3000312D3000334E5600492D530031
:1020F0002D3535003030500053553000302D310033
:102100003031230023232300232323002323230010
:102110002323230023234E00564944004941300025
:10212000302D580058580000302B0000DA00000015
:102130008000000040100000C00700008200000086
:1021400078D60000002369000000700072000000D3
:10215000E3B00000005A4B0000006E00CE0000000B
:1021600081A80000003D5E000000C60013000000D2
:1021700001280000009162000000B100D6000000BC
:10218000621C0000005394000000B500EF00000046
:1021900022EC000000C5030000000C006A000000F3
:1021A0006E5900000071F00000009A00BE000000AF
:1021B0000011000000F93200000072007100000000
:1021C0009F670000002AB40000004900F9000000E9
:1021D000D9D80000003CCB0000005000AE00000049
:1021E000A86C0000006A3E000000D1003A00000028
:1021F0009E130000005CAA000000AE00A2000000D8
:1022000036D9000000F6350000002C00AD000000BB
:10221000AD59000000846A00000040002600000064
:10222000DC2C0000002D560000000100A200000080
:102230002136000000A3A7000000E4003A000000DF
:10224000000000000000000000000000000000008E
:1022500000000000009C360000008800D000000054
:10226000704F000000D287000000AC000B0000009F
:1022700012FB00000060750000006C00060000000A
:1022800051D8000000F2D50000006B00A60000004D
:10229000AA3E0000001C1200000022007A0000008C
:1022A000CFD1000000478C000000B1004E000000BC
:1022B000EDDB00000063C5000000FA009C00000098
:1022C0008EE40000004B630000008A004300000021
:1022D00092C10000009A6C0000003700300000003E
:1022E000101000000071650000006C00FC00000090
:1022F000ECFE00000037260000003700410000001F
:10230000C148000000086E000000E9003300000032
:102310004E27000000C9FB00000038006A000000E2
:1023200007F8000000ABFB0000006C00810000001B
:10233000E10A000000F3800000000B00DC00000058
:10234000BF93000000407D000000A6009500000043
:102350000467000000B9120000009100F7000000BF
:102360002C59000000ABB4000000F0001900000080
:10237000245600000021F5000000FE0029000000A6
:10238000466D000000714C00000035004B0000005D
:1023900053F4000000E45F0000002800500000003B
:1023A0001AC2000000195D0000001F004600000076
:1023B000A4B2000000B2F6000000D300DF0000006D
:1023C00070E30000007E0900000037003C000000C0
:1023D00052D300000074CD000000C400B200000021
:1023E0004FAD0000002A2C0000008A005F000000B2
:1023F00037D7000000B5B30000002600270000001A
:1024000028600000005003000000F8008B0000006E
:10241000CB6C000000C5CC000000630093000000FE
:102420008CFD0000004F46000000CD008E00000033
:10243000063C00000070BF000000DA0057000000FA
:1024400071AA0000000E690000000E008500000067
:10245000B91400000072010000003000820000008A
:10246000016E0000003081000000F600A0000000B6
:10247000030200000001020000000200080000004A
:10248000776100000012B400000011004700000056
:102490009AAC000000300A000000060008000000AE
:1024A0002A8600000048CE0000003D000400000025
:1024B000030300000030140000003100120000008F
:1024C000301000000006030000005500040000006A
:1024D000030C00000009460000006C0065000000CD
:1024E00078500000006F7700000065007200000067
:1024F0003020000000170D00000032003100000005
:10250000303300000030330000003100360000009E
:10251000303400000030310000005A001800000084
:102520000F39000000393900000039003100000087
:10253000323300000031320000003300350000006B
:102540003935000000395A00000030001400000046
:1025500031120000003010000000060003000000EF
:102560005504000000030C000000090046000000B4
:102570006C6500000078500000006F0077000000DC
:10258000657200000030760000003000100000008E
:1025900006070000002A860000004800CE00000068
:1025A0003D02000000010600000005002B000000B5
:1025B000810400000000220000000300620000000F
:1025C0000004000000B96E0000007600C3000000A7
:1025D000DB7A00000080EF0000004300870000006D
:1025E00001380000003B59000000C7004200000015
:1025F000829C0000006AAB000000480061000000FF
:10260000C67F0000000437000000B600E4000000B0
:10261000308A000000E3AD0000000000C5000000AB
:10262000B7A6000000BDCA000000FC00A800000022
:10263000B78500000002A80000006200140000003E
:10264000522400000068CA000000DE0026000000DE
:1026500081F700000068AC0000001B00EC000000E7
:10266000F1610000007F89000000A5007E000000ED
:10267000AACA0000004D61000000F000D600000072
:10268000964000000021C10000003D006A000000EB
:102690009FEE000000F719000000CC002B000000A6
:1026A0003A6D0000000C590000000E007900000097
:1026B00090F8000000F3F50000006C0067000000D7
:1026C000651F000000A3130000003000110000008F
:1026D000300F000000060300000055001D00000040
:1026E000130100000001FF000000040005000000CD
:1026F00030030000000101000000FF003000000076
:102700000A06000000082A000000860048000000B9
:10271000CE3D0000000403000000030003000000A1
:10272000670000000030640000000200300000007C
:102730005C20000000AF510000003C00940000004D
:102740002CD1000000F42400000039000C0000002F
:10275000EAB3000000A803000000390000000000F8
:102760008B660000000BDB00000022001E00000052
:1027700037A2000000A2920000007A00330000009F
:10278000245D000000BBEF000000F700FE00000029
:10279000E84100000053320000003500280000002E
:1027A000BA970000001B5C000000BB00190000008D
:1027B00002300000007BC9000000A000F50000000E
:1027C000466B000000FBD2000000C5002E00000098
:1027D000EECD000000B4000000008F007600000085
:1027E000287400000006BC000000A200B100000038
:1027F0003FDC0000006A770000001B004C00000076
:10280000600D000000F48300000080003100000033
:102810001904000000CEEC0000008F00FA00000058
:10282000E817000000B50D0000000E00DF000000FA
:102830005AAF00000000000000000000000000008F
:102840000000000000000000000000000000000088
:102850000000000000000000000000000000000078
:102860000000000000000000000000000000000068
:102870000000000000000000000000000000000058
:102B90000000000000000000C0220000E002000071
:102BA00080000000161000000A00000080000000F5
:102BB000282E00000E000000820000005849680026
:102BC0004978490000452600454C45007245000003
:102BD000362E00000600000080000000A02D00003E
:102BE0002200000080000000001800004A060000DB
:102BF00080000000C22D00002200000080000000C4
:102C0000042E00001200000082000000FC4A980020
:102C100049CC38002A39AA00375C4100563E2E00C4
:102C2000218E3A00CE2C00009A00000080000000A7
:102C3000201000000A00000080000000B8270000FB
:102C40000002000082000000000089001112230031
:102C50009B32240046AD57003665BF0074488C0097
:102C6000C19D5A00AFD3BE006CCAE500DB7EE9000F
:102C7000F7F881001008010093331A0022A55600CE
:102C80002C47B700753E6400C99C40008DDBBF0037
:102C900052AEED00DA64CB00FFF97600E8022100C5
:102CA0008B301000029913002667AF007634440081
:102CB000BD554A00ADC3BC00588ED1009F6EEB00DD
:102CC000E7FA7C00C8F5D90083310A002091120090
:102CD0001803A700772E6600B5543C0045CBBD0015
:102CE00042ACD9009E508F00EFFB6600EAFDD80091
:102CF00074C90400428D530016619F0070200400C7
:102D0000A915320027BB36004CCEC500DF5EED00B2
:102D1000D7FC680088E199007AABF300BA855200CD
:102D20000C439700711E6000A114280005B3370002
:102D30003A26CD00DE44CF00DFFD5600ECE99800D6
:102D40006089FB00BB72AA0006638F00721440000A
:102D50009D51220025AB34003006B900174EEF001C
:102D6000C7FE5C00CCD5DD006AA9E300B8788A0014
:102D7000F19B8700730E620095501C0041A3350043
:102D80002A24B10016380700CFFF4600EEDDDC0034
:102D900054CDEB00B962A800F99A70008B0884004A
:102DA00081951A00A793B6002CC2A500D33EE1007E
:102DB000B7F0400008C91900522BDB003A644E00FE
:102DC000ED5F76006DFF7C0089940000859BB70065
:102DD00012A6AD00D224C300BFF13600E0C1180036
:102DE0004809D3003B5A2A00E55E6C004FF77D008E
:102DF0007E6C0A00A583B40018869100972EE3002C
:102E0000A7F23C00C0B5D1004229CB0038500A00DF
:102E1000D91B66006FEF7E00744CFD005D8BB50022
:102E200002A4990096108700AFF32600E2BDD000FF
:102E300034C1C300394A2800D11A58000BE77F007B
:102E40006E6EF5005C7C4D000CC68500D71EE5005B
:102E500097F4280080A191003AA3B300B2444A003D
:102E6000CD5B560069DF7800600CE9001D722F0011
:102E7000FB3E8D00D604C7009FF51600E4A9900024
:102E80002081BB00B332A200C55A4C004BD7790059
:102E90005E68E1001C680D00F33F7A002E0EE7002B
:102EA00087F61C00C495D5002AA1A300B038820083
:102EB000B19346006BCF7A005448DD0059622D0073
:102EC000EB3C70000EF91F008FF70600E69DD40062
:102ED00014C5AB00B122A000B992300083C77B00BB
:102EE0004E6AD500585C4900E33D6A002CF11E0093
:102EF000780F00000A2C0000C400000080000000D1
:102F0000162E000012000000800000003C2E000081
:102F100006000000800000003E10000002000000DB
:102F200080000000462E0000020000008200000029
:102F30000100000000000000809B2200104078008B
:102F4000EB4F5000DB0032000E003E00E24F50001D
:102F50005900320005003E000004E0001A00320073
:102F6000E14F5000CB013A0032003700E94F5000EA
:102F70008F003200AE003E00E34F5000C5013A0022
:102F80006A003700EE4F50003601320005003E0067
:102F9000EC4F5000E7003200ED4F5000BD013A0009
:102FA0001001370021CBB300814F5000780132006F
:102FB00051CBB300814F500095013200EF4F5000CC
:102FC000B4013A0045013700A0002000708188005C
:102FD00091B52200C0A122001148780000C0EB008A
:102FE000D1A1220080487800E1A122008048780029
:102FF000F1A122008048780001A2220080487800D8
:1030000011A222008048780021A222008048780086
:1030100031A2220080487800505C810041A2220049
:10302000804878004800DE0051A2220080487800E5
:10303000AF013700A000200070818800605C810033
:10304000C1A12200804878004800DE00D1A1220002
:1030500080487800805C8100E1A1220080487800EF
:103060004800DE00F1A1220080487800705C8100F9
:1030700001A22200804878004800DE0011A2220050
:1030800080487800905C810021A22200804878006E
:103090004800DE0031A2220080487800C05C810038
:1030A00041A22200804878004800DE0051A22200A0
:1030B000804878008E013700A000200070818800D1
:1030C000E1E42100C0A1220011487800F1E42100D0
:1030D000D0A122001148780001E52100E0A12200E2
:1030E0001148780011E52100F0A122001148780074
:1030F00021E5210000A222001148780000C0EB0069
:1031000011A222008048780021A222008048780085
:1031100031A222008048780041A222008048780035
:1031200051A222008048780071013700A0002000E1
:1031300070818800D15C8100C0A122000148780024
:10314000F15C8100D0A1220001487800E15C81009F
:10315000E0A1220001487800015D8100F0A1220079
:1031600001487800F1F2800000A2220001487800B6
:1031700001F3800010A222000148780011F38000C2
:1031800020A222000148780021F3800030A2220012
:103190000148780031F3800040A222000148780005
:1031A00041F3800050A2220001487800500137000E
:1031B000A000200070818800802C8100C1A1220025
:1031C000804878004800DE00D1A1220080487800C5
:1031D000902C8100E1A12200804878004800DE00A8
:1031E000F1A1220080487800A02C810001A22200D9
:1031F000804878004800DE0011A222008048780054
:10320000B02C810021A22200804878004800DE0016
:1032100031A222008048780000C0EB0041A22200C9
:103220008048780051A222008048780030013700A1
:10323000A00020007081880040D08000C1A1220041
:10324000804878004800DE00D1A122008048780044
:10325000A05C8100E1A12200804878004800DE00E7
:10326000F1A1220080487800B05C810001A2220018
:10327000804878004800DE0011A2220080487800D3
:10328000215A220020A2220011487800315A22003F
:1032900030A2220011487800415A220040A22200A8
:1032A00011487800515A220050A22200114878009B
:1032B0000F013700A0002000708188008157220094
:1032C000C0A1220011487800E1572200D0A12200BD
:1032D0001148780071572200E0A1220011487800BF
:1032E00031572200F0A122001148780051572200E6
:1032F00000A2220011487800C157220010A222002B
:10330000114878002158220020A22200114878009C
:10331000A157220030A22200114878002157220034
:1033200040A222001148780050A2220000C8EB0001
:10333000EF003700A000200070818800C0298100C4
:10334000D1298100C2A1220000497800C80ADE000C
:103350004809DD004802DE0004027100D2A122000B
:1033600004497800400ADE0005002000E2A12200A6
:10337000044978004809DE0003002000F1A1220082
:103380008248780000C0EB0001A22200804878004B
:1033900011A2220080487800202C8100312C81006D
:1033A00022A2220000497800C80ADE004809DD0098
:1033B0004802DE000402710032A2220004497800B3
:1033C000400ADE000500200042A2220004497800E5
:1033D0004809DE000300200051A222008248780044
:1033E000C3003700A000200070818800F2F2800046
:1033F000C1A122008248780002F38000D1A12200FE
:103400008248780012F38000E1A12200824878000F
:1034100022F38000F1A122008248780032F380007C
:1034200001A222008248780042F3800011A222000B
:103430008248780021A2220080487800D1572200DB
:1034400030A22200114878001157220040A2220029
:1034500011487800F1C5220050A2220011487800DE
:10346000A3003700A000200070818800B15722001F
:10347000C0A122001148780071668100D0A122000D
:1034800001487800A1CD2200E0A122001148780077
:10349000B1CD2200F0A122001148780091CD220088
:1034A00010A222001148780011CD220020A2220093
:1034B0001148780021CD220030A222001148780066
:1034C000D169810040A222000148780031CD22005C
:1034D00050A222001148780085003700A00020008B
:1034E0007081880021CD2200C0A1220011487800FF
:1034F00001CD2200D0A1220011487800E0678100B0
:10350000F1678100E2A1220000497800C80ADE00CC
:103510004809DD004802DE0004027100F2A1220029
:1035200004497800400ADE000500200002A22200C3
:10353000044978004809DE000300200011A222009F
:1035400082487800006781001167810022A2220072
:1035500000497800C80ADE004809DD004802DE00A4
:103560000402710032A2220004497800400ADE0001
:103570000500200042A22200044978004809DE002C
:103580000300200051A22200824878005800370032
:10359000A00020007081880030678100C1A1220056
:1035A000804878004800DE00D1A1220080487800E1
:1035B00050678100E1A12200804878004800DE00C9
:1035C000F1A12200804878000040EB0001A2220017
:1035D0008048780011A2220080487800206781008E
:1035E00021A22200804878004800DE0031A222009B
:1035F000804878004067810041A22200804878001E
:103600004800DE0051A222008048780038003700D0
:10361000A00020007081880011D42200C0A12200E7
:1036200011487800D1698100D0A1220001487800BA
:1036300051628100E0A1220001487800716681009A
:10364000F0A1220001487800E069810001A2220077
:10365000804878004800DE0011A2220080487800EF
:10366000F069810021A22200804878004800DE0035
:1036700031A2220080487800C069810041A2220066
:10368000804878004800DE0051A22200804878007F
:1036900017003700A00020007081880000C0EB00F8
:1036A000C1A1220080487800D1A122008048780082
:1036B000E1A1220080487800F1A122008048780032
:1036C00001A222008048780011A2220080487800E0
:1036D00021A222008048780031A222008048780090
:1036E00041A222008048780051A222008048780040
:1036F000000006000000FE0022E42200001978000D
:1037000001097800000006000000FE000000EB0048
:103710008000EB00F8FF0700D628EF00000006004D
:103720000000FE000000FE00801F7800811F78006E
:10373000821F780021E4220012468000C3E8A9001D
:1037400031007800B046880011007800B04688004B
:10375000D1E8A800000000000000000002F0A7006F
:10376000C3E8A800D1E8AF00FEFF37004F017800A2
:10377000CF0078004F007800000006000000FE0037
:10378000A2028000A10288009080BA001000BA0056
:10379000A2028800000006000000FE00A2028000D5
:1037A000A10288001000BA00A202880000000600F2
:1037B0000000FE00F27F20000001610008003A00D6
:1037C000320024008246880090468800A146880086
:1037D000941B02000000000010002000D1A8AF00E0
:1037E00000002000000006000000FE004000240051
:1037F0008046880012468000C3E8A90021E4220028
:1038000031007800B046880011007800B04688008A
:10381000D1E8A800000000000000000002F0A700AE
:10382000C3E8A800D1E8AF00FEFF37001000200079
:10383000D1A8AF0000002000000006000000FE003C
:10384000D1E8AF00FEFF37000000A70013003700EB
:103850000010A70011003700A1468800904688009C
:103860001000240080468800A0028000A10F2000E4
:10387000A1028800010020008208BB008398BB00E1
:103880008408BB008598BB00941B02000000000068
:10389000A002880010002000D1A8AF000000200086
:1038A000000006000000FE00D1E8AF00FEFF370078
:1038B0000000A700140037000010A7001200370016
:1038C000A146880090468800A102800010002400D4
:1038D00080468800A00F2000A00288000000200081
:1038E0000208BB00F20F20000298BB000308BB00D7
:1038F0000298BB00941B020000000000A102880097
:1039000010002000D1A8AF00000020000000060039
:103910000000FE00D1E8AF00FEFF3700F30F2000EB
:103920008081610009003A0090468800A146880025
:103930002000240080468800C2468800941B0200B4
:103940000000000010002000D1A8AF0000002000FF
:10395000000006000000FE00D1E8AF00FEFF3700C7
:10396000F30F20008081610015003A009046880026
:10397000A14688001000240080468800A00F200087
:10398000A00288000000200001082000F40F2000A1
:103990003208BB000498BB003208BB000490BB0097
:1039A000941B020000000000D2A8EC00D2A8EC009A
:1039B0002100B100F6FF3A0010002000D1A8AF00AE
:1039C0000000200000000600F27F200000006100DF
:1039D0000000060002802F0000006100F2FF2F00AF
:1039E0008100610000000600C0C4220011C0B300C5
:1039F00090CF1000B5003A00E0C6220010407800D9
:103A0000E24F50002500320005003E000004E000B7
:103A100008003200814F5000AA003A000900370028
:103A2000E34F500061003200E74F5000A5003A001C
:103A3000A1003700F1C62200D0C52200114878004D
:103A4000A0003700F0C6220010407800F1C5220027
:103A50008048780002C7220001C622009248780000
:103A600012C7220011C622009248780022C7220005
:103A700021C62200924878000048A30004003200CA
:103A800011C0B30090C52200014878008D003700B6
:103A900090C522000048EB008A003700F1C62200E2
:103AA00060C122001148780001C7220070C12200C5
:103AB0001148780011C7220080C122001148780007
:103AC00021C7220090C122001148780031C722008E
:103AD000A0C122001148780041C72200B0C12200D5
:103AE00011487800C1C1220050C7220090487800D8
:103AF00062C72200D0C1220012487800F0FF2700E0
:103B0000110150004311DE008208780072C72200C4
:103B1000E1C122009248780082C72200F1C1220050
:103B20009248780001C2220092C722009248780091
:103B3000A3C7220012C222001349780011015000CD
:103B40004311DE008208780021C22200B2C72200A1
:103B500092487800C3C7220032C22200134978007D
:103B6000110150004311DE008208780041C222009A
:103B7000D2C7220092487800E3C7220052C2220036
:103B800013497800110050004300DE0080087800DF
:103B9000F1C7220060C222001148780001C822004B
:103BA00070C22200114878004600370000C722008A
:103BB0001080FB008000EB00480ADD00C802DE0038
:103BC000850272004802DD0010C722001080FB0051
:103BD0008000EB00C000DD00000020000002720049
:103BE00081827200F0C622001080FB008000EB0092
:103BF000000272008182720020C722001081FB0047
:103C00008001EB00C811DD000200200020B8220076
:103C1000021872000390720031C72200B0C6220061
:103C20001148780041C72200C0C622001148780020
:103C300051C72200D0C622001148780061C7220077
:103C400080CB22001148780071C7220090CB22005F
:103C50001148780081C72200A0CB220011487800CB
:103C600091C72200B0CB220011487800A1C72200E2
:103C7000C0CB220011487800B1C72200D0CB22006F
:103C800011487800C1C72200E0CB2200114878001B
:103C9000D1C72200F0CB220011487800E1C72200F2
:103CA00000CC220011487800F1C7220010CC22007D
:103CB0001148780003003700F0C622001040780059
:103CC00077040700C0C422000048EB000000060093
:103CD0000400FA00889FBE008A1F78008C9FBE00F7
:103CE0006000B80090BF9F00A1BF9F002058220035
:103CF0001004E00006003A00305822001004E000F2
:103D000003003200CE050700305822000048EB00C7
:103D10005057220011C0B30090CF100026003A0087
:103D2000E05722001004E00023003A004057220030
:103D300090CF10000D003A00960A07000040EB00FB
:103D400091B522008048780001B5220080487800B3
:103D5000C1E322008048780012C0B300D1E3220002
:103D6000824878004157220080487800105822008D
:103D70001004E0000E003200971207004216070000
:103D800010C0B30041CD2200804878008157220046
:103D900080487800B15722008048780010582200EF
:103DA0000048EB0010002000D02C8900E02C890096
:103DB000B90A0700370037008057220011C0B3004E
:103DC00090CF10001F003A00E05722001004E000DE
:103DD0001C003A007057220090CF100019003A00E2
:103DE000912B810010102000808F500015003A00A8
:103DF00090CD220011C0B30090CF100011003A0006
:103E000011C3B3006E805700015878000148780054
:103E100022002000EE805700008020002A120700B8
:103E2000E10F500007003A00000000009057220008
:103E30000048EB0011C0B30090B5220001487800A3
:103E40007F140700B057220011C0B30090CF1000BC
:103E500010003A00E05722001004E0000D003A0084
:103E6000702C8100E30F50000A00320070572200CE
:103E700090CF100007003A00912B81001010200015
:103E8000808F500003003A0011C0B30010CD220013
:103E900001487800D02C81000000E00028003200AA
:103EA000FA2C220048FF280029042000CCFF28001B
:103EB0002D0420000800BE0031FE07000001BE00F6
:103EC0008A00780082587800F8820A000200000018
:103ED0008248780062044400E0844C000A85E800CF
:103EE0008C0F54008D8F5C00F2FF3A009A2D220057
:103EF00048FF280029002000CCFF28002D002000CA
:103F00000800BE001EFE07000001BE008A00780007
:103F100082587800F8820A00020000008248780087
:103F200062044400E0844C000A85E8008C0F5400D1
:103F30008D8F5C00F2FF3A00A05922000008EB00D0
:103F4000E02C81000000E00015003200DA2E220093
:103F500008FE2800290020008CFE28002D002000EB
:103F60000800BE0006FE07000001BE008A007800BF
:103F700082587800F8820A00020000008248780027
:103F800062044400E0844C000A85E8008C0F540071
:103F90008D8F5C00F2FF3A00C05922000008EB0050
:103FA0004F06BE004F0578004F04BE000080FA00A7
:103FB00000000600889FBE008A9FBE008C9FBE0046
:103FC0008E1F78004310800083C141008382FB0074
:103FD000B50FB0009081FB0083824200D081FB00CE
:103FE000838242000100E000080032009354220066
:103FF00081804100504278000483FB0086824200A9
:1040000084697800818F5100FAFF3A008582FB00B5
:104010000010200085025000854F51007F003A00BB
:1040200011C0B30000572200014878002058220038
:104030001004E0002E003A00482C8100592C810029
:10404000A05422000104210081004400A655220052
:104050000801BE00F47B200005002000840F510001
:10406000858F590001003E009048780061014100B1
:10407000E08149000000E8008100E800860F500060
:10408000F6FF3A0070044400E0844C00482C89009C
:10409000592C8900007C2000800F5400E08F5C00C8
:1040A00004003A0011C0B3003058220001487800E3
:1040B00065003700F13B2400810F5400E08F5C0065
:1040C00061003600D05722000048EB0011C0B30059
:1040D00020582200014878006000B800202C890098
:1040E000312C8900402C8900512C89005600370062
:1040F000202C8100312C8100F2FF270013002000CA
:10410000820F5000838F58000D003E009054220013
:10411000B1CE220092552200D0687800820F500064
:10412000FDFF3A0010C0B30031CD22008048780076
:10413000D1572200804878005F1307004200370003
:10414000F2FF280053002000820F5000838F580098
:104150003D003E00A8542200AB552200C953220066
:10416000FC1F20000D0020002E3322000A542200E4
:104170001900BE008C0F50008D8F580002003E00C9
:1041800000004700184878001000200001002000BF
:10419000990C4000D9944800B0FF2F003100200056
:1041A000BA0F1000AA8F180003003E00C13222008F
:1041B00018407800EC1307001000200001002000D8
:1041C0001A0D40005A9548000804E8008B0F54006F
:1041D000E7FF3A0011C0B300D05722000148780031
:1041E000E0298100F129810002202000820F500087
:1041F000E08F580007003A0011C0B30010572200AA
:10420000014878006000B800E0298900F1298900A0
:104210000D003700281307000B003700005722005D
:104220000048EB00415422001100E80080087800AB
:10423000E20F5000040036001000200050198900E1
:10424000010078000008EB004F0778004F06BE0021
:104250004F05BE004F04BE000000060080CD2200C6
:104260001004E00024003A0070CD22001004E000A9
:1042700021003A00E2678100F3678100F0FF270028
:1042800061002000800F5100818F59001A003E000C
:10429000F11407000004E00017003A00E067810015
:1042A000F1678100F47F200005002000850178007F
:1042B00000016200E00F5100E08F590003003A0056
:1042C00013C0B30062CD220003497800030120002F
:1042D00002D02200BD0A070011C0B30080CD220029
:1042E00001487800C0CF2200020120000300200016
:1042F0001008410050904900C0CD22001004E00099
:1043000015003A00E2678100F3678100F0FF2700A3
:1043100061002000800F5100818F59000E0036008F
:10432000C069810001802100810F500004003A0023
:1043300011C0B300C0CD220001487800060037004C
:1043400011802100810F500003003A0021C0B3000A
:10435000C0CD220001487800A0608100E10F50002C
:1043600050003A0080CD220013C0B30090CF11005E
:104370001A003A0000688100A06889001168810075
:10438000B168890022688100C268890033688100B1
:10439000D368890040688100E06889005168810025
:1043A000F168890062688100026989007368810090
:1043B0001369890051C0B30000D42200014878007D
:1043C000701407000000EB00206A8900306A890041
:1043D000800020007066890032003700C0CD2200C6
:1043E000104078000004E0002E003200E14F500041
:1043F00011003A00406A8100A0688900516A81007A
:10440000B1688900626A8100C2688900736A8100AC
:10441000D3688900806A8100E0688900916A810020
:10442000F1688900A26A810002698900B36A81008B
:104430001369890012003700E24F500010003A0063
:10444000C06A8100A0688900D16A8100B1688900D2
:10445000E26A8100C2688900F36A8100D36889003A
:10446000006B8100E0688900116B8100F1688900B0
:10447000226B810002698900336B81001369890016
:1044800051C0B30000D42200014878003D14070059
:104490000000EB00206A8900306A8900800020005B
:1044A00070668900E2678100F367810000002800E0
:1044B00061002000800F5100818F590006003A00F2
:1044C000C169810020802100808F500002003A00E5
:1044D0006000200070668900106A8100E40F5000BF
:1044E00002003600500020007066890000000600BF
:1044F000F0C4220011C0B30090CF100004003A00B5
:104500000048EB00E0CA22000008EB009A003700E8
:1045100070658100E30F50001D00320004003E0072
:10452000E10F50000800320010003E0092003700FA
:10453000E50F50008200320050003900E60F5000B5
:1045400089003A0083003700E0C022000008EB0039
:104550000080EB0090608900500520004012880028
:10456000200020007065890083003700E0C0220031
:104570000008EB000080EB009060890050052000EF
:104580004012880030002000706589007A003700F2
:1045900071608100E0C82200008040001080FB00B4
:1045A00062062000820F50000600320052052000F3
:1045B000820F500003003200A20A2000820F500038
:1045C00005003A00600620004012880040002000EC
:1045D00070658900680037004012880082608100A1
:1045E000828F500002003900E3C022008109E800F8
:1045F00071608100810F51001400360023C1220038
:1046000013027800040068000080FB0000004000F6
:10461000857B2200808242004820DE001500680071
:10462000800978008100E80071608900810F5100E5
:1046300051003A000080EA0090608900E1C8220041
:1046400002814000004978004B0037000201E80079
:10465000828F500006003A00E0C82200810040002E
:10466000906081004800DE008048780042003700FA
:1046700050002000706589003F00370071608100A4
:10468000E0C82200008040001081FB004212880038
:1046900080608100808F500002003900E3C022005A
:1046A0008109E80071608100810F5000160036001A
:1046B00023C1220013027800040169000281FB007B
:1046C00002014100857B2200028142004822DE0077
:1046D00012026A00840978008100E8007160890094
:1046E000810F500005003A000482EA0094608900BE
:1046F000E1C822000080400004487800300020001B
:10470000706589001C0037000000E800808F5000B1
:1047100008003A00E0C8220081004000906081005B
:104720004800DE0080487800300020007065890075
:104730001100370050002000706589000E0037001E
:10474000A00A2000401288006000200070658900E7
:10475000090037000000EB007065890011C52200D8
:1047600080487800040037000000EB007065890085
:1047700011C522008048780000000600E687470047
:10478000881F78008E1F78006000B800C0BF9F00AF
:10479000D1BF9F00E0FF280021042000F8FB0700A4
:1047A000905C8900E0FF280021002000F4FB070056
:1047B000705C89002006290021042000F0FB07001E
:1047C000205D89002006290021002000ECFB070065
:1047D000105D8900C0FF280021002000E8FB0700D1
:1047E00008592200000C7800C0FF28002104200096
:1047F000E3FB0700902C890040FE280021002000E8
:10480000DFFB0700A02C890040FE280021042000C7
:10481000DBFB070000017800B02C89008080EB00F2
:10482000988F100002003A00902C8100802C8900A3
:10483000A02C8100E10F400001003A00A22C890069
:1048400022002000E8805700008020007C0E070036
:10485000E10F500007003A00688757003E81FB00D7
:104860004811DD009E80FB0080B922000108410054
:10487000020037000080EB00C05C89007C13070059
:10488000905C8100E1B82200910F500002003200DC
:10489000E10F400004003A00115D810040BA22009F
:1048A000908F500028003200912C81000059220086
:1048B000908F500024003A00B12C81004059220012
:1048C000908F500020003900FF100700915C81009C
:1048D00000B92200908F50001D003A00B15C8100A9
:1048E000A05A2500808F500019003A0030D0800077
:1048F0000000E00016003A00C05C810011132300A4
:10490000810F500002003200E10F400010003A0019
:10491000C608070010C1B30068875700005F780021
:10492000004F7800C15C810010132300808F50007D
:1049300007003A0022002000E88057000080200095
:10494000610F0700020037000080EB00805C8900E7
:1049500047130700930E0700715C8100C0B8220066
:10496000908F500006003A00A15C8100A05A2500FB
:10497000808F500002003A003D13070086110700A7
:104980003B130700A05C8100E10F400016003A00D5
:10499000912C810000592200908F500012003A00A3
:1049A000B12C810040592200908F50000E00390038
:1049B000C5100700B15C8100A05A2500808F50000F
:1049C00009003A009908070029130700750E07002F
:1049D000A15C8100A05A2500808F500002003A009F
:1049E000231307006C1107004F0778004F0478006D
:1049F0006F00B10000000600889FBE0030B22200A8
:104A000011C0B30090CF100025003A000048EB0021
:104A1000C010800079B12200804C780068B122007B
:104A2000984078007F120700004C78001940780009
:104A3000D1B1220091484000E34F500087003A0076
:104A400040B222000048EB0030C0B300720E0700F5
:104A500081B1220080487800E14F400004003A0014
:104A60003030EF0020B222000048EB007B0037001E
:104A70008040780070B1220010407800AB1207002F
:104A80000080FB008081880010C0B30021B22200AA
:104A90008048780081B22200804878006F0037009B
:104AA000C2108000809B22002A10B40002487800C7
:104AB00068B122009840780002407800591207003F
:104AC000004C780040B2220013C0B30090CF110018
:104AD00016003A0070B12200104078004E0E070018
:104AE00081B1220080487800E14F400004003A0084
:104AF0003030EF0020B222000048EB000900370000
:104B00008040780070B122001040780087120700C2
:104B10000080FB008081880011C0B30020B2220019
:104B20000148780040B222000048EB0020B2220089
:104B300011C0B30090CF100048003A0050818000AF
:104B400081818000810F500020003100D2B122000D
:104B5000839B2200808141009341780012C941006B
:104B60000000E8005081880072B12200B3C1B30098
:104B700092CF11000F003A00808F500037003A00AA
:104B8000809B22001040780011C8B300814F500074
:104B90000400320061C8B30001404000E44F5000FF
:104BA0002E003E0011C0B30080B222000148780000
:104BB0002A003700808F500028003A0011C0B3004F
:104BC00080B222000148780024003700810F500095
:104BD00022003A0071B122009140780072C1400079
:104BE000E14F51000C003600E5CF40000A003200D2
:104BF000E4CF400008003200E3CF4000060032005E
:104C0000EFCF400004003200E8CF40000200320045
:104C1000EACF40000A003A00D1B122009140EA00F8
:104C20008180FB00829B2200000041001080FB007D
:104C3000808F500006003A00CC10070004003700B7
:104C400060B122001004E00001003A00C710070024
:104C50002A30EC0080B222000048EB004F04BE0076
:104C600000000600889FBE008A9FBE008C1F78004F
:104C7000E0678100F1678100F2FF210063002000FE
:104C8000820F5000838F58002A003E0072120700E6
:104C9000804078000000EB000104E0007C003A0056
:104CA000C8CF22000301200002D022001800BE005D
:104CB000460807001805BE003167810000D02200B9
:104CC00006D122000A01BE00F4FD2100650020008B
:104CD000F90F2000887B2200840F5100858F590036
:104CE00007003E00C80BDE001086FB0081006E004E
:104CF00089806000818040008100440091806B00C9
:104D000061014100E08149000000E800860F500089
:104D1000F1FF3A00C0CF2200020120000300200072
:104D20000218450003904D00316789000000EB0038
:104D300057003700F2FF270063002000820F500069
:104D4000838F58002A003E004312070080407800FD
:104D50000000EB000104E0004D003A00C8CF220043
:104D60000301200002D022001800BE00170807002F
:104D70001805BE005167810000D0220006D1220034
:104D80000A01BE00F4FD270065002000F90F200095
:104D9000887B2200840F5100858F590007003E0058
:104DA000C80BDE001086FB0081006E008980600069
:104DB000818040008100440091806B0061014100CE
:104DC000E08149000000E800860F5000F1FF3A0042
:104DD000C0CF22000201200003002000021845007D
:104DE00003904D00516789000000EB002800370058
:104DF000D0CD2200904078000104E00011003A007C
:104E000015120700804078000000EB000104E0006C
:104E10001F003A0011C0B300D0CD22000148780035
:104E20002300200002D02200E0FF210061002000CA
:104E3000E607070003688100236789000000EB0094
:104E4000130037000000EB00E1CF500010003A00E3
:104E500001120700804078000000EB000104E00030
:104E60000B003A0021C0B300D0CD220001487800E9
:104E70002300200002D02200E0FF27006100200074
:104E8000D2070700006881004067890010002000F9
:104E90004F0678004F05BE004F04BE00000006001C
:104EA000E24F50002B00320003003E00E14F500063
:104EB00079003A0005003700E44F50003A00320014
:104EC000E54F500074003A004C00370000C7220044
:104ED0001080FB00D069890021C722009181FB006E
:104EE000C819DD0011C722001181FB00C1D32200C7
:104EF0008288710041C722009181FB00C819DD0042
:104F000031C722001181FB00E1D3220082887100A9
:104F100052C7220011D42200924878000018A30042
:104F20000600320011C0B300A0CD22000148780075
:104F3000B0CD22000048EB0057003700A0CD220082
:104F40000048EB0011C0B300B0CD2200014878004A
:104F50005100370000C722001080FB00D069890093
:104F600020C722001081FB004811DD0010C722007D
:104F70009080FB00C0D322000108710040C72200CE
:104F80001081FB004811DD0030C722009080FB003B
:104F9000E0D322000108710051C7220010D4220082
:104FA000114878003C00370000C722001080FB0049
:104FB000D069890020C722001081FB004811DD0064
:104FC00010C722009080FB00C0D3220001087100AE
:104FD00040C722001081FB004811DD0030C72200CD
:104FE0009080FB00E0D322000108710051C722002D
:104FF00010D42200114878002700370070CD22001D
:105000000048EB00C1C6220020D2220005C82200C1
:105010008041EB00510178000080E8000208780030
:105020000304E00006003A00E0B1970003016900C4
:1050300002F0A7000201EA008201EA00CF19DE00B7
:10504000858F5000F3FF3A0070CD220003487800AE
:10505000E1CF510008003A0021D422001100E800FD
:1050600080087800E40F50000B003600500020004C
:10507000106A8900080037000000EB00106A890000
:1050800081D322009108E80081CD22008048780079
:10509000C0CD22000048EB0000000600889FBE0043
:1050A0008A9FBE008C1F7800C308A9005611070014
:1050B000420F07005411070079110700A3110700E0
:1050C0000000EB00EE0C07005AAEA8005BEEA80053
:1050D000762EA8000080EB0040D0880069BA22003C
:1050E000880E2000880C78006D110700560B070011
:1050F000141107003E30EF0069110700B0080700E7
:1051000067110700990F140005003A0008E4220017
:105110001804A10099FD07001804A000520607001A
:105120005F110700C70E07005D1107006502070049
:1051300040062000405D8900C010800004C2A90024
:105140000208A9000182A8003311070069B62200F5
:1051500028B62200CA582200FB572200EC57220032
:10516000DBFA0700AE0A07004D11070010C0B300BC
:10517000994F100023003A00F0818000E20F5000A8
:105180001300320005003E000000E000080032007D
:10519000E10F50001A003A0009003700E30F5000F9
:1051A0000F003200E40F500015003A000F003700E6
:1051B000C509070010002000F081880011003700A9
:1051C000E509070020002000F08188000D0037006D
:1051D000050A070030002000F08188000900370030
:1051E00040002000F081880006003700580B0700BF
:1051F00047100700804CEB003E30EF000100370005
:105200003E30EF0065090700CB0A0700B0FA07003F
:105210001804E0000C003200F50307001A007800C3
:105220000000E000070032001B04E000050032002F
:105230000000E900000D780002003A0010C0B30041
:10524000004E7800004CEB00A1FA070050B6220097
:1052500011C0B30090CF100003003A0058100700AF
:1052600050B622000048EB0040B622001004E000D7
:10527000BBFF32000048EB00B9FF370030002000D0
:10528000001888000223EF000423EF000623EF003C
:105290000823EF0000012000501888000C23EF00C5
:1052A0000E23EF001023EF001223EF001423EF0072
:1052B0001623EF001823EF001A23EF001C23EF0042
:1052C0001E23EF002023EF002223EF002423EF0012
:1052D0002623EF002823EF002C23EF006223EF00AA
:1052E0009823EF002E23EF006423EF009A23EF00B2
:1052F0003023EF006623EF009C23EF00C101200064
:105300009119880041012000411B8800F01C880091
:105310003423EF006A23EF0000102000001D8800F6
:105320003623EF006C23EF00A223EF003823EF00B9
:105330006E23EF00A423EF003A23EF007023EF0069
:10534000A623EF003C23EF007223EF00A823EF0019
:105350003E23EF007423EF00AA23EF004023EF0069
:105360007623EF00AC23EF004223EF007823EF0019
:10537000AE23EF004423EF007A23EF00B023EF00C9
:105380004623EF007C23EF00B223EF004823EF0019
:105390007E23EF00B423EF004A23EF008023EF00C9
:1053A000B623EF004C23EF008223EF00B823EF0079
:1053B0004E23EF008423EF00BA23EF005023EF00C9
:1053C0008623EF00BC23EF00701A2600901A880095
:1053D00070382100401C8800F0702200F01D880009
:1053E0005423EF008A23EF00C023EF005623EF0081
:1053F0008C23EF00C223EF005823EF008E23EF0031
:10540000C423EF005A23EF009023EF00C623EF00E0
:105410005C23EF009223EF00C823EF008510070004
:105420000004E000FDFF3200A000280050198800B1
:1054300080002800001B8800B01C880000000600C7
:10544000889FBE0087100700000320000000E900CD
:10545000FEFF3A0040102100104478008110070040
:10546000E54F54000100360058C0B3000884FB002B
:1054700008004400E1E52100008040000008EB0046
:1054800078100700901021009084FB00C84CDD00CC
:10549000801021001080FB008904700040FE28006D
:1054A00021002000B6F80700A02C8900E10F400081
:1054B00001003A00A92C890008044400E0E521001D
:1054C0000800400011002000908F100008003A00F2
:1054D000A05722000048EB00000F2000501989005F
:1054E0000070210083D422000474210036003700AC
:1054F0000040EB00416F210052C0B300914F1100FA
:1055000005003A00506F21001080FB00E084B200DB
:105510000000E9004F00DE00816F21001181FB00D7
:1055200051032000810F510007003A00916F2100C4
:105530001181FB0051032000810F51000300320054
:105540000040EB00010037000040EB00C16F21007C
:105550001181FB0001032000810F510007003A0078
:10556000D16F21001181FB0031032000810F510018
:10557000030032000040EB00010037000040EB0068
:1055800041592200918F5400020039000004E000CC
:1055900005003A00A05722000048EB00B0002000B0
:1055A00050198900CEFF3700E05822000008EB00B8
:1055B00010C0B300A1572200804878001158220083
:1055C00080487800C6FF370000017800830078002B
:1055D000B258780092487800640040008381E80067
:1055E000840F5000F8FF3A004F04BE000000060090
:1055F00000CD220041C0B30090CF10000400320063
:1056000020CD22001004E00001003A00910A0700BA
:1056100030CD220012C0B300904F110023003A0099
:1056200000CD220043C0B30090CF11001C003A000F
:10563000501981000000E00019003A0020CD22003E
:105640001004E00016003A00031007000004E00018
:1056500016003A000067810011678100F2FF270001
:1056600063002000820F5000838F580008003E0026
:1056700003012000C2CE22006706070000CE2200F0
:105680000201200003002000100841005090490052
:10569000090E070030CD22000048EB000300370060
:1056A000050E070030CD22000048EB0020CD22007F
:1056B0001004E00014003A000067810011678100C7
:1056C0000200220063002000820F5000838F5800E8
:1056D00004003A0011C0B300F0CD22000148780068
:1056E0000D0037000200280063002000820F5000E8
:1056F000838F580004003A0021C0B300F0CD22008F
:105700000148780013003700F0CD220010407800E7
:10571000E14F50000D003A00CF0F07000004E000F9
:105720001B003A002300200002D02200E0FF2100ED
:1057300061002000A5050700036881002367890038
:10574000F0CD22000048EB0011003700E24F50007E
:105750000F003A00C00F07000004E0000C003A0000
:1057600011C0B30020CD22000148780023002000A2
:1057700002D02200E0FF270061002000930507000F
:105780000068810040678900F0CD22000048EB00EE
:105790001000200000000600889FBE008A1F7800CD
:1057A0008C9FBE005A2C220048FF280009002000D0
:1057B000CCFF28000D0020000800BE00F0F7070015
:1057C0000001BE008A00780082587800F8820A0042
:1057D000020000008248780062044400E0844C002B
:1057E0000A85E8008C0F54008D8F5C00F2FF3A00B0
:1057F0009A2D220048FF280029002000CCFF280015
:105800002D0020000800BE00DDF707000001BE00EB
:105810008A00780082587800F8820A0002000000AE
:105820008248780062044400E0844C000A85E80065
:105830008C0F54008D8F5C00F2FF3A00FA2C22008E
:1058400048FF280029042000CCFF28002D04200058
:105850000800BE00CAF707000001BE008A007800F9
:1058600082587800F8820A0002000000824878001E
:1058700062044400E0844C000A85E8008C0F540068
:105880008D8F5C00F2FF3A003A2E220008FE2800BD
:10589000090020008CFE28000D0020000800BE003A
:1058A000B7F707000001BE008A0078008258780030
:1058B000F8820A0002000000824878006204440076
:1058C000E0844C000A85E8008C0F54008D8F5C004A
:1058D000F2FF3A00DA2E220008FE280029002000FC
:1058E0008CFE28002D0020000800BE00A4F7070051
:1058F0000001BE008A00780082587800F8820A0011
:10590000020000008248780062044400E0844C00F9
:105910000A85E8008C0F54008D8F5C00F2FF3A007E
:105920004F06BE004F0578004F04BE000000060081
:10593000881F7800002BEF00000620001058880018
:10594000042BEF008800200038588800082BEF0057
:1059500000202C0050588800102BEF00122BEF0075
:10596000142BEF000000240000598800F0012000F3
:1059700010598800382BEF00402BEF00482BEF0028
:10598000502BEF003A2BEF00422BEF004A2BEF0099
:10599000522BEF003C2BEF00442BEF004C2BEF0081
:1059A000542BEF003E2BEF00462BEF004E2BEF0069
:1059B000562BEF0000402000505B8800705B880091
:1059C000905B8800B05B8800A02BEF00A42BEF0059
:1059D000A82BEF00AC2BEF00D02BEF00D22BEF0069
:1059E000F02BEF00F22BEF00022CEF00C0BA2400E6
:1059F000360F0700E0BA2400360F070000BB240072
:105A0000360F070020BB2400360F070040BB2400E0
:105A1000360F070060BB2400360F070080BB240050
:105A2000360F0700A0BB2400360F0700C0BB2400C0
:105A3000360F0700E0BB2400360F070000BC24002F
:105A4000360F07000D28A9002D28A8000D68A90011
:105A50002D68A8000D88A9002D88A8000DA8A90010
:105A60002DA8A8000DC8A9002DC8A8000DE8A90000
:105A70002DE8A80000F02000022CB70001EBA800E0
:105A8000330E070080802000005C8800822BEF002E
:105A9000842BEF00305C8800882BEF008A2BEF000E
:105AA0008C2BEF00785C880010102000805C880050
:105AB000905C880010002000A05C88004F047800F3
:105AC000000006001E00FA00FE805700E00D2000D6
:105AD000E50A0700E14F500005003A00C20020002F
:105AE000FE80570020BF2200E10D070007003700AD
:105AF000A200200081D6220030BF2200E40D070062
:105B0000A1C0B30020BF220001487800FE805700EA
:105B100000032000D40A0700E14F500005003A00BE
:105B2000C2002000FE805700A0BA2200D00D07005E
:105B3000070037003201200021D72200B0BA22002E
:105B4000D30D070031C1B300A0BA2200014878008C
:105B5000FE80570010032000C30A0700E14F5000E9
:105B600005003A00C2002000FE80570020BC220041
:105B7000BF0D070007003700F200200051D82200B7
:105B800030BC2200C20D0700F1C0B30020BC2200CF
:105B900001487800FE80570020032000B20A070069
:105BA000E14F500005003A00C2002000FE8057007F
:105BB000A0BD2200AE0D070007003700C200200084
:105BC00041D92200B0BD2200B10D0700C1C0B30011
:105BD000A0BD220001487800C2002000B1BD220013
:105BE000602F2200AA0D0700C2002000B1BD2200D4
:105BF00020302200A60D0700E6805700F00D20009F
:105C0000810A0700E14F50000F003A00406624006F
:105C1000DFB89700808F500008003A0030972600C8
:105C2000EFB89700808F500004003A0011C0B30015
:105C300040B52200014878000500370040B5220039
:105C40000048EB000200370040B522000048EB009E
:105C50000080FA0000000600889FBE0018C0B30054
:105C6000C2298100D32981000000290021042000DD
:105C7000800F5100818F590055003A005119810061
:105C8000100F2000808F500051003200305722004A
:105C90001004E0004E003A0010002000E02C8900C3
:105CA000D02C8900E0FF280021042000B4F6070072
:105CB00070198900C2322200920F100003003A00CE
:105CC000305722000848780005003700305722007E
:105CD0000048EB00100F2000501989000044EB0031
:105CE000C0FF280021002000A5F60700802C8900B5
:105CF000C0FF280021042000A1F60700902C890095
:105D000040FE2800210020009DF60700495922008E
:105D1000800C780040FE28002104200098F607003F
:105D200000017800B02C89000080EB00990F100072
:105D300001003A00A22C8900802C8100E10F400074
:105D400002003A00902C8100802C8900912C810067
:105D500000592200908F500007003A00405922005D
:105D6000900F51000400390011C0B30020572200E9
:105D70000148780003003700205722000048EB005C
:105D80000044EB0040592200900F51000600310002
:105D9000501981000000E00003003A00B00020002C
:105DA000501989000044EB00912C81000059220019
:105DB000908F500006003200501981000000E00072
:105DC00003003A00000F2000501989000044EB0046
:105DD000084078004F04BE0000000600809B2200AF
:105DE00011C0B30090CF100056003A00909B2200E3
