:020000040000FA
:10000000FFFFFF00FFFFFF00089C0000489C00006E
:10001000849C0000269C0000669C0000429F00001B
:10002000A29C0000429F0000429F0000429F0000EF
:10003000429F0000429F0000429F0000429F00003C
:10004000429F0000429F0000429F0000429F00002C
:10005000429F0000429F0000429F0000429F00001C
:10006000429F0000429E00007A9E0000429F0000D6
:10007000429F0000429F00005E9E0000429F0000E1
:10008000429F0000429F0000429F0000429F0000EC
:10009000429F0000429F0000429F0000429F0000DC
:1000A000429F0000429F0000429F0000429F0000CC
:1000B000429F0000429F0000429F0000429F0000BC
:1000C000429F0000429F0000429F0000429F0000AC
:1000D000429F0000429F0000429F0000429F00009C
:1000E000429F0000429F0000429F0000429F00008C
:1000F000429F0000429F0000429F0000429F00007C
:10010000429F0000429F0000429F0000429F00006B
:10011000429F0000429F0000429F0000429F00005B
:10012000429F0000429F0000429F0000429F00004B
:10013000429F0000429F0000429F0000429F00003B
:10014000429F0000429F0000429F0000429F00002B
:10015000429F0000429F0000429F0000429F00001B
:10016000429F0000429F0000429F0000429F00000B
:10017000429F0000429F0000429F0000429F0000FB
:10018000429F0000429F0000429F0000429F0000EB
:10019000429F0000429F0000429F0000429F0000DB
:1001A000429F0000429F0000429F0000429F0000CB
:1001B000429F0000429F0000429F0000429F0000BB
:1001C000429F0000429F0000429F0000BE9E000030
:1001D000429F0000489D00007A9D0000AC9D0000F9
:1001E000DE9D0000109E0000429F0000429F000024
:1001F000429F0000429F0000429F0000429F00007B
:10020000429F0000429F0000429F0000429F00006A
:10021000429F0000429F0000429F0000429F00005A
:10022000429F0000429F0000429F0000429F00004A
:10023000DE9C0000FA9C0000429F0000429F0000EC
:10024000429F0000429F0000429F0000429F00002A
:10025000429F0000429F0000429F0000429F00001A
:10026000429F0000429F0000429F0000429F00000A
:10027000429F0000429F0000429F0000429F0000FA
:10028000429F0000429F0000429F0000429F0000EA
:10029000429F0000429F0000429F0000429F0000DA
:1002A000429F0000429F0000429F0000429F0000CA
:1002B000429F0000429F0000429F0000429F0000BA
:1002C000429F0000429F0000429F0000429F0000AA
:1002D000429F0000429F0000429F0000429F00009A
:1002E000429F0000429F0000429F0000429F00008A
:1002F000429F0000429F0000429F0000429F00007A
:10030000429F0000429F0000429F0000429F000069
:10031000429F0000429F0000429F0000429F000059
:10032000429F0000FFFFFF00FFFFFF00FFFFFF00F5
:10033000FFFFFF00FFFFFF00FFFFFF00FFFFFF00C9
:10034000FFFFFF00FFFFFF00FFFFFF00FFFFFF00B9
:10035000FFFFFF00FFFFFF00FFFFFF00FFFFFF00A9
:10036000FFFFFF00FFFFFF00FFFFFF00FFFFFF0099
:101000008F4823000EFF27000E01880000002000FB
:101010000000E000020032000001200020028800F1
:1010200014000700120407000000E00003003A006B
:10103000E0912F0001002000020037000000200096
:1010400001002000810F70004220AE000F00070059
:10105000100020000000E0004220AE00969902003F
:101060000000000028850200010000000040DA00B6
:101070000000FE00E09A20000000E00002003200C4
:10108000102020009001880000000600A1028800C6
:10109000800478000000EB001F003700E284440069
:1010A00054A0B4009905BA00E284440054A0B400EE
:1010B0009906BA00E284440054A0B4000006EB0094
:1010C000476FDE00FD07B200AE018800636CE100EF
:1010D00003003A000AD801000000EB000E003700C0
:1010E000606CE10008003A00004DEB000A05E800E2
:1010F000020039003420EC000AF0A0008B05E90062
:10110000F9FF3E00040037006168E1000100320091
:101110000086EB000B00070019C7BA001905BA00DA
:101120000E04E00003003A000A00E000DBFF3A0092
:1011300000000600FE07B200AE0288008A047800B4
:10114000F5FF37000CD0A300E20F4D001C003B0060
:1011500089027800354DBA000A05E800020039001E
:101160003420EC000AF0A0008B05E9000F003200EB
:10117000254DBA000A05E800020039003420EC00D1
:101180000AF0A0008B05E900080032000C00E00026
:101190000600320015CDBA000A05E8000200390049
:1011A0003420EC000AF0A0008B05E9008984E800F7
:1011B00054A0B4000B00E000E2FF3A00000006007B
:1011C0009902BA00055D78008B05E900F7FF32004F
:1011D000C82ADE00055D78008B05E900F3FF3200C8
:1011E0000C00E000F1FF320019DDBA00EEFF37001D
:1011F0006100E10001003200100005005400F80019
:1012000020102000A002880000F92B001000BA0076
:101210005400F9000700260000F0A6008703D10063
:101220000703780001C4FE000003EB00312020001A
:1012300091018800211D2900111303008703E90093
:10124000FDFF3A0000F0A7000000050000F0A0003C
:1012500080C4FE0086037800F3FF370004082000F6
:10126000010037000002EB006100E10001003200E4
:10127000100005003200F8003400F8008102780008
:10128000930188003200BE000100E0000C00320033
:101290000470A70000F0A00032037800C733DE001E
:1012A000848343004220AF008703E800A701880041
:1012B000F607B2007F30E100040032002000200079
:1012C0003400F9003200F900000006008100E90056
:1012D0000500E00003003A0001800900321003001D
:1012E000E8FF37000180090032900300D561AE00AD
:1012F000E4FF370030002000F1FF370050052000E8
:10130000B00E8800A00A2000B00E8800D3E1A8002B
:101310000000060050052000B00E8800A00A200042
:10132000B00E8800D3E1A90000000600000006000E
:101330001090040001000000508C04000100000027
:10134000C868040001000000DE6C04000100000019
:101350004465040001000000F87A04000100000068
:101360007E750400010000002E340400010000001E
:10137000FE6F040001000000FE8D0400010000006B
:101380008691040001000000508404000100000068
:101390006C8204000100000098820400010000003B
:1013A00080900400010000008A9104000100000008
:1013B0006890040001000000228F0400010000007A
:1013C0000088040001000000B08804000100000053
:1013D0003A860400010000000291040001000000B0
:1013E0008E910400010000009291040001000000B1
:1013F0000E8E040001000000A69104000100000010
:10140000A891040001000000AA910400010000005E
:10141000AC91040001000000AE9104000100000046
:10142000B091040001000000B2910400010000002E
:10143000B491040001000000B69104000100000016
:10144000B891040001000000BA91040001000000FE
:1014500096910400010000003A8F04000100000092
:10146000468F040001000000367B040001000000EC
:10147000EE53040001000000528F04000100000040
:101480009CEC040000000000787A040001000000D9
:10149000748C040001000000868C04000100000030
:1014A000988C040001000000F08A04000100000094
:1014B000AA8C040001000000D88A0400010000008A
:1014C000BC8C040001000000CE8C04000100000070
:1014D000E08C0400010000005E8F040001000000A9
:1014E0006A8F040001000000768F040001000000F4
:1014F000828F0400010000008E8F040001000000B4
:1015000024900400010000009A8F040001000000F4
:10151000F479040001000000367A040001000000A4
:101520001886040001000000F68504000100000098
:10153000C08A040001000000F28C040001000000D9
:10154000A88A040001000000908A04000100000045
:10155000788A040001000000608A04000100000095
:10156000488A040001000000308A040001000000E5
:10157000D485040001000000188A04000100000066
:10158000B285040001000000A68F040001000000E5
:101590009884040001000000928304000100000010
:1015A000048D040001000000F88604000100000022
:1015B000168D040001000000288D040001000000C9
:1015C0003A8D0400010000005E8D0400010000005F
:1015D000008A0400010000004C8D0400010000009E
:1015E0001E8E0400010000002E9004000100000087
:1015F0005A86040001000000E88904000100000090
:10160000D089040001000000B88904000100000036
:10161000A089040001000000888904000100000086
:1016200070890400010000005889040001000000D6
:101630004089040001000000288904000100000026
:101640001089040001000000F88804000100000077
:10165000E088040001000000DE64040001000000D6
:101660000E64040001000000B87A040001000000CC
:101670002A73040001000000B28F04000100000082
:101680002449040001000000BE8F04000100000096
:10169000CA8F0400010000003A600400010000004D
:1016A000A865040001000000D68F040001000000BE
:1016B000C255040001000000E28F04000100000098
:1016C0009E6E040001000000E676040001000000A8
:1016D000668B0400010000007C8B04000100000008
:1016E000928B040001000000A88B040001000000A0
:1016F000BE8B040001000000C8910400010000003E
:10170000D48B040001000000CA9104000100000015
:10171000CE91040001000000AC870400010000002D
:10172000FC610400010000000C66040001000000E0
:101730009890040001000000CC910400010000001A
:10174000C887040001000000C691040001000000E9
:10175000EE56040001000000926D0400010000003C
:101760002A69040001000000A66F040001000000C7
:101770004E6F040001000000F66E0400010000003E
:10178000BC91040001000000BE91040001000000B3
:10179000C091040001000000C2910400010000009B
:1017A000C491040001000000547004000100000016
:1017B000EC690400010000009E7E040001000000AE
:1017C0004E8E0400010000005E8E04000100000047
:1017D0006E8E040001000000B883040001000000C8
:1017E000DE83040001000000048404000100000006
:1017F0002A840400010000004EA004000000000044
:101800004AA004000000000048A0040000000000FE
:101810003600F800809FBE00829FBE00849FBE00FD
:10182000869FBE00C028A9000000EB004A9102007C
:10183000010000004F03BE004F02BE004F01BE007A
:101840004F00BE003600F900004006003600F800E8
:10185000809FBE00829FBE00849FBE00869FBE0008
:101860001A90020001000000C048A90010002000EA
:101870004A910200010000004F03BE004F02BE006B
:101880004F01BE004F00BE003600F90000400600C8
:101890003600F800809FBE00829FBE00849FBE007D
:1018A000869FBE00C068A900200020004A91020067
:1018B000010000004F03BE004F02BE004F01BE00FA
:1018C0004F00BE003600F900004006003600F80068
:1018D000809FBE00829FBE00849FBE00869FBE0088
:1018E000C088A900300020004A91020001000000D9
:1018F0004F03BE004F02BE004F01BE004F00BE00AE
:101900003600F900004006003600F800809FBE0057
:10191000829FBE00849FBE00869FBE00C608A900AD
:10192000700020004A910200010000004F03BE0039
:101930004F02BE004F01BE004F00BE003600F9004E
:10194000004006003600F800809FBE00829FBE0067
:10195000849FBE00869FBE00C508AB000400320015
:10196000C508A900C00020004A9102000100000043
:10197000C4A8AB0004003200C4A8A9009000200055
:101980004A91020001000000C488AB00040032004C
:10199000C488A900A00020004A91020001000000B4
:1019A000C408AB0004003200C408A900B000200045
:1019B0004A91020001000000FFFF37003600F800E6
:1019C000809FBE00829FBE00849FBE00869FBE0097
:1019D000A4910200010000001048A9004F03BE00BE
:1019E0004F02BE004F01BE004F00BE003600F9009E
:1019F000004006003600F800809FBE00829FBE00B7
:101A0000849FBE00869FBE00D84D020001000000EA
:101A10001068A9004F03BE004F02BE004F01BE0078
:101A20004F00BE003600F900004006003600F80006
:101A3000809FBE00829FBE00849FBE00869FBE0026
:101A40003200F8003400F80010002000A0018800E7
:101A50001020200000D0FE004061800051808000F6
:101A60000100E00001003200010001000D28A90082
:101A70003400F9003200F9004F03BE004F02BE00EF
:101A80004F01BE004F00BE003600F90000400600C6
:101A90003600F800809FBE00829FBE00849FBE007B
:101AA000869FBE003200F8003400F80010002000CD
:101AB000A00188001020200000D0FE00606180009E
:101AC000418080000100E0000100320001000100BF
:101AD0000D68A9003400F9003200F9004F03BE0080
:101AE0004F02BE004F01BE004F00BE003600F9009D
:101AF000004006003600F800809FBE00829FBE00B6
:101B0000849FBE00869FBE003200F8003400F800BB
:101B100010002000A00188001020200000D0FE004E
:101B200070618000318080000100E000010032001F
:101B3000010001000D88A9003400F9003200F9000D
:101B40004F03BE004F02BE004F01BE004F00BE005B
:101B50003600F900004006003600F800809FBE0005
:101B6000829FBE00849FBE00869FBE003200F800A8
:101B70003400F80010002000A00188001020200090
:101B800000D0FE0080618000218080000100E00024
:101B900001003200010001000DA8A9003400F90085
:101BA0003200F9004F03BE004F02BE004F01BE00DD
:101BB0004F00BE003600F900004006003600F80075
:101BC000809FBE00829FBE00849FBE00869FBE0095
:101BD0003200F8003400F80010002000A001880056
:101BE0001020200000D0FE00906180001180800055
:101BF0000100E00001003200010001000DC8A90051
:101C00003400F9003200F9004F03BE004F02BE005D
:101C10004F01BE004F00BE003600F9000040060034
:101C20003600F800809FBE00829FBE00849FBE00E9
:101C3000869FBE003200F8003400F800100020003B
:101C4000A00188001020200000D0FE00A0618000CC
:101C5000018080000100E00001003200010001006D
:101C60000DE8A9003400F9003200F9004F03BE006E
:101C70004F02BE004F01BE004F00BE003600F9000B
:101C8000004006003600F800809FBE00829FBE0024
:101C9000849FBE00869FBE00E08E0200010000000F
:101CA00001E8A9004F03BE004F02BE004F01BE0075
:101CB0004F00BE003600F900004006003600F80074
:101CC000809FBE00829FBE00849FBE00869FBE0094
:101CD000EE8E0200010000000288A9004F03BE0042
:101CE0004F02BE004F01BE004F00BE003600F9009B
:101CF000004006003600F800809FBE00829FBE00B4
:101D0000849FBE00869FBE003200F8003400F800B9
:101D100010002000A00188001020200000D0FE004C
:101D20000182AB0007003A00567602000100000075
:101D30006000B800E0828900F18289001083890088
:101D40002183890004C2AB0002003200C010800071
:101D500004C2A9000208A9000182A8003400F90009
:101D60003200F9004F03BE004F02BE004F01BE001B
:101D70004F00BE003600F900004006003600F800B3
:101D8000809FBE00829FBE00849FBE00869FBE00D3
:101D90003200F8003400F80010002000A001880094
:101DA0001020200000D0FE0062608000E2808900E8
:101DB00080032300900078004311DE000101410000
:101DC000C308DE000108510072608000F2808900C3
:101DD000A0032300900078004311DE0001014100C0
:101DE000C308DE0001085100D260800092818900A2
:101DF000E0042300900078004311DE00010141005F
:101E0000C308DE0001085100C2608000A281890081
:101E100000052300900078004311DE00010141001D
:101E2000C308DE000108510042618000B2818900D0
:101E300020052300900078004311DE0001014100DD
:101E4000C308DE0001085100145802000100000020
:101E50008257020001000000168C02000100000001
:101E60000D28A9003400F9003200F9004F03BE002C
:101E70004F02BE004F01BE004F00BE003600F90009
:101E8000004006000040DA000000FE0000C0DA005A
:101E90000000060044002000EC874700881F7800FF
:101EA0008E1F78006E8757000E047800041F78009C
:101EB000000F780002ACBE006E805700D1BF9F00BB
:101EC000F2FF07004F077800180078009800900094
:101ED0004F047800CF00B1000000060000C0DA0017
:101EE0000000060011002000EC8747008E1F7800DC
:101EF0006C875700A1BF9F00002F78006C805700AF
:101F0000F6FF07001E0078004F077800CF00B100F1
:101F10000000060000C0DA0000000600EC87470061
:101F20008E1F7800E20F500034003E0030A4810084
:101F3000E10F500003003200E20F500011003A00A0
:101F40000C003700832320000300E00001003A006A
:101F50000040DA003802E200020035004022EF00C3
:101F600039E2A80038A2AB000D003A0038A2A80060
:101F70000B003700032620000300E00001003A00B8
:101F80000040DA006002E200020035006822EF0043
:101F900061E2A80060A2AB0001003A0060A2A800C4
:101FA000820178000B0037003102FB00E10F500086
:101FB00004003A003E82AB00FEFF3A004412880063
:101FC000030037006682AB00FEFF3A0084138800EE
:101FD0008301E9000300E000F3FF3A00E10F500045
:101FE00003003A003EA2AB00FEFF32000C003700B7
:101FF00066A2AB00FEFF3200090037006C87570075
:1020000033002000031F7800000F7800D2BF9F002C
:10201000C1BF9F006C805700BEFF07005FB99700EB
:102020004F07780002007800CF00B10000000600E2
:102030006022B800060220000000D0008180D2009B
:102040000482D2008582D2000000A0000202520069
:1020500083825A00030031000202420083824A0058
:102060000000A1000603E900F3FF3A0000000600AB
:10207000000005000200E00004003200800178004A
:10208000B15978000201E900FDFF3A0000000600A6
:102090000000060010007800A0FF3700889FBE00F7
:1020A000000478008A9FBE000000EB0081057800E4
:1020B0000800E0001A003200180090000058A30049
:1020C0000A003200EA0444006C054400190078005C
:1020D000000000009A0F500029003E0074004400E8
:1020E0000008EB00000DEB00800CEB007E054400C7
:1020F00009022000888444001A02780000000000D1
:1021000019007800800F520011003900800CEB009C
:102110000000EB00000DEB000B00E00005003A00B2
:10212000000000004F05BE00000000004F04BE008C
:1021300000000600000000001800780069FF07009A
:102140004F05BE004F04BE0000000600F9FF370037
:102150000002520011002000CFA2DE00612BB90066
:10216000180078004BFF0700800CEB000000EB002C
:10217000000DEB000B00E000E9FF3200EDFF37003F
:102180000001EB00B8099000820078000800780098
:10219000030001000080EB001900E000E0FF3200C6
:1021A000740044000008EB00000DEB00800CEB0015
:1021B000CEFF3700466C0000657800004E35000009
:1021C000353000003000000000000000289A0000B8
:1021D00001F000002C9A000002000000289A000084
:1021E00003D80000289A000004000000289A00008C
:1021F00005000000289A000006000000289A000050
:1022000007000000289A000008000000289A00003B
:1022100009000000289A00000A000000289A000027
:102220000B000000289A00000C000000289A000013
:102230000D000000289A00000E000000289A0000FF
:102240000F000000289A000010000000289A0000EB
:1022500011000000289A000012000000289A0000D7
:1022600013000000289A000014000000289A0000C3
:1022700015000000289A000016000000289A0000AF
:1022800017000000289A000018000000289A00009B
:1022900019B00000309A00001ABC0000349A000007
:1022A0001BFC0000389A00001C000000289A000067
:1022B0001D000000289A00001E000000289A00005F
:1022C0001F000000289A000020B000003C9A000087
:1022D00021000000289A000022000000289A000037
:1022E00023000000289A000024000000289A000023
:1022F00025000000289A000026000000289A00000F
:1023000027000000289A000028000000289A0000FA
:1023100029000000289A00002A000000289A0000E6
:102320002B000000289A00002C000000289A0000D2
:102330002D0000009CEC00002E000000289A0000F8
:102340002F000000289A000030BC0000449A0000D2
:1023500031000000289A000032000000289A000096
:1023600033000000289A000034000000289A000082
:1023700035000000289A000036000000289A00006E
:1023800037000000289A000038000000289A00005A
:1023900039000000289A00003A000000289A000046
:1023A0003BE00000489A00003C000000289A000032
:1023B0003D000000289A00003E000000289A00001E
:1023C0003F000000289A000040000000289A00000A
:1023D00041000000289A000042000000289A0000F6
:1023E00043000000289A000044000000289A0000E2
:1023F00045000000289A000046A000004C9A00000A
:1024000047000000289A000048000000289A0000B9
:1024100049000000289A00004AE00000509A00009D
:102420004B000000289A00004C000000289A000091
:102430004D000000289A00004E000000289A00007D
:102440004F000000289A000050000000289A000069
:1024500051000000289A000052000000289A000055
:1024600053000000289A000054000000289A000041
:1024700055A00000549A000056000000289A000061
:1024800057E00000589A000058000000289A000009
:1024900059000000289A00005A000000289A000005
:1024A0005BA000005C9A00005C000000289A00001D
:1024B0005DE00000609A00005E000000289A0000C5
:1024C0005F000000289A000060000000289A0000C9
:1024D00061000000289A000062000000289A0000B5
:1024E00063000000289A000064000000289A0000A1
:1024F00065000000289A000066000000289A00008D
:1025000067000000289A000068000000289A000078
:1025100069000000289A00006A000000289A000064
:102520006BE00000649A00006C000000289A000034
:102530006D000000289A00006E000000289A00003C
:102540006F000000289A000070000000289A000028
:1025500071000000289A000072000000289A000014
:1025600073000000289A000074000000289A000000
:1025700075000000289A000076000000289A0000EC
:1025800077000000289A000078000000289A0000D8
:1025900079F00000689A00007AF000006C9A000060
:1025A0007BF00000709A00007CF00000749A00003C
:1025B0007DF00000789A00007EF000007C9A000018
:1025C0007F000000809A000080000000289A000030
:1025D00081F00000849A000082000000289A000028
:1025E00083000000289A000084000000289A000060
:1025F00085000000289A000086AC0000889A000040
:1026000087AC00008C9A000088A00000909A00001F
:1026100089A00000949A00008A000000989A0000A7
:102620008BA000009C9A00008CA00000A09A0000E3
:102630008DA00000A49A00008EA00000A89A0000BF
:102640008FA00000AC9A000090A00000B09A00009B
:1026500091A00000B49A000092000000289A0000A7
:1026600093000000289A000094000000289A0000BF
:1026700095A00000B89A000096A00000BC9A000047
:1026800097A00000C09A000098000000C49A0000C3
:1026900099BC0000C89A00009ABC0000CC9A0000C7
:1026A0009BBC0000D09A00009CBC0000D49A0000A3
:1026B0009DBC0000D89A00009EBC0000DC9A00007F
:1026C0009F000000289A0000A0000000289A000047
:1026D000A1B00000E09A0000A2B00000E49A00005F
:1026E000A3000000289A0000A4000000289A00001F
:1026F000A5000000289A0000A6000000289A00000B
:10270000A7A00000E89A0000A8000000289A000096
:10271000A9000000289A0000AA000000289A0000E2
:10272000AB000000289A0000AC000000289A0000CE
:10273000ADBC0000EC9A0000AE000000289A00003A
:10274000AF000000289A0000B0000000289A0000A6
:10275000B1000000289A0000B2000000289A000092
:10276000B3000000289A0000B4000000289A00007E
:10277000B5000000289A0000B6000000289A00006A
:10278000B7000000289A0000B8000000289A000056
:10279000B9000000289A0000BA000000289A000042
:1027A000BB000000289A0000BC000000289A00002E
:1027B000BD000000289A0000BE000000289A00001A
:1027C000BF000000289A0000C0000000289A000006
:1027D000C1000000289A0000C2000000289A0000F2
:1027E000C3B00000F09A0000C4B00000F09A0000EE
:1027F000C5B00000F49A0000C6B00000F49A0000D2
:10280000C7B00000F09A0000C8B00000F09A0000C5
:10281000C9000000289A0000CA000000289A0000A1
:10282000CB000000289A0000CC000000289A00008D
:10283000CD000000289A0000CE000000289A000079
:10284000CF000000289A0000D0000000F89A000095
:10285000D1000000289A0000D2000000289A000051
:10286000D3000000FC9A0000D4000000009B000090
:10287000D5000000049B0000D6000000089B00006B
:10288000D70000000C9B0000D8000000109B000047
:10289000D9000000149B0000DA000000189B000023
:1028A000DB0000001C9B0000DC000000209B0000FF
:1028B000DD000000249B0000DE000000289B0000DB
:1028C000DF000000289A0000E0000000289A0000C5
:1028D000E1BC00002C9B0000E2000000289A0000F0
:1028E000E3000000289A0000E4000000289A00009D
:1028F000E5000000309B0000E6000000349B000073
:10290000E7000000389B0000E8000000289A000063
:10291000E9000000289A0000EA000000289A000060
:10292000EB000000289A0000EC000000289A00004C
:10293000ED000000289A0000EEB000003C9B000073
:10294000EFBC0000409B0000F0D00000449B000062
:10295000F1D00000489B0000F2BC00004C9B00003E
:10296000F3000000289A0000F4000000289A0000FC
:10297000F5000000289A0000F6BC0000509B000003
:10298000F7000000289A0000F8F00000549B0000B7
:10299000F9000000289A0000FA000000289A0000C0
:1029A000FBDC0000589B0000FCF000005C9B00007A
:1029B000FDBC0000609B0000FE000000289A0000A3
:1029C000FF000000289A000000000000C1C00000C5
:1029D00081C100004001000001C30000C0030000ED
:1029E0008002000041C2000001C60000C0060000D5
:1029F0008007000041C7000000050000C1C50000BD
:102A000081C400004004000001CC0000C00C0000A4
:102A1000800D000041CD0000000F0000C1CF00007C
:102A200081CE0000400E0000000A0000C1CA000074
:102A300081CB0000400B000001C90000C00900006C
:102A40008008000041C8000001D80000C018000044
:102A50008019000041D90000001B0000C1DB00000C
:102A600081DA0000401A0000001E0000C1DE0000F4
:102A700081DF0000401F000001DD0000C01D0000DC
:102A8000801C000041DC000000140000C1D40000E4
:102A900081D500004015000001D70000C0170000DC
:102AA0008016000041D6000001D20000C0120000D4
:102AB0008013000041D3000000110000C1D10000CC
:102AC00081D000004010000001F00000C030000084
:102AD0008031000041F1000000330000C1F300002C
:102AE00081F200004032000000360000C1F6000014
:102AF00081F700004037000001F50000C0350000FC
:102B00008034000041F40000003C0000C1FC0000E3
:102B100081FD0000403D000001FF0000C03F0000BB
:102B2000803E000041FE000001FA0000C03A0000B3
:102B3000803B000041FB000000390000C1F90000AB
:102B400081F800004038000000280000C1E80000C3
:102B500081E900004029000001EB0000C02B0000CB
:102B6000802A000041EA000001EE0000C02E0000B3
:102B7000802F000041EF0000002D0000C1ED00009B
:102B800081EC0000402C000001E40000C0240000A3
:102B90008025000041E5000000270000C1E700009B
:102BA00081E600004026000000220000C1E2000093
:102BB00081E300004023000001E10000C02100008B
:102BC0008020000041E0000001A00000C060000083
:102BD0008061000041A1000000630000C1A300006B
:102BE00081A200004062000000660000C1A6000053
:102BF00081A700004067000001A50000C06500003B
:102C00008064000041A40000006C0000C1AC000022
:102C100081AD0000406D000001AF0000C06F0000FA
:102C2000806E000041AE000001AA0000C06A0000F2
:102C3000806B000041AB000000690000C1A90000EA
:102C400081A800004068000000780000C1B80000C2
:102C500081B900004079000001BB0000C07B00008A
:102C6000807A000041BA000001BE0000C07E000072
:102C7000807F000041BF0000007D0000C1BD00005A
:102C800081BC0000407C000001B40000C074000062
:102C90008075000041B5000000770000C1B700005A
:102CA00081B600004076000000720000C1B2000052
:102CB00081B300004073000001B10000C07100004A
:102CC0008070000041B0000000500000C190000082
:102CD000819100004051000001930000C0530000AA
:102CE000805200004192000001960000C056000092
:102CF000805700004197000000550000C19500007A
:102D00008194000040540000019C0000C05C000061
:102D1000805D0000419D0000005F0000C19F000039
:102D2000819E0000405E0000005A0000C19A000031
:102D3000819B0000405B000001990000C059000029
:102D4000805800004198000001880000C048000041
:102D50008049000041890000004B0000C18B000049
:102D6000818A0000404A0000004E0000C18E000031
:102D7000818F0000404F0000018D0000C04D000019
:102D8000804C0000418C000000440000C184000021
:102D9000818500004045000001870000C047000019
:102DA000804600004186000001820000C042000011
:102DB000804300004183000000410000C181000009
:102DC0008180000040400000FA000000F000000098
:102DD000DC000000C8000000B4000000A0000000FB
:102DE0008C000000780000006E000000640000000D
:102DF0005A00000050000000460000003C000000A7
:102E000032000000280000001E0000001400000036
:102E10000A00000000000000F6FF0000ECFF0000C8
:102E2000D8FF0000C4FF0000B0FF00002C0100002C
:102E300022010000180100000E0100000401000042
:102E4000FA000000F0000000DC000000C8000000F4
:102E5000B4000000A00000008C000000780000001A
:102E60006E000000640000005A00000050000000E6
:102E7000460000003C000000320000002800000076
:102E80001E000000140000000A0000000000000006
:102E9000F6FF0000ECFF0000D8FF0000C4FF0000B8
:102EA000B0FF00009B080000AE080000DD08000035
:102EB0001909000064090000C00900002D0A000083
:102EC000AA0A0000ED0A0000310B0000750B00009B
:102ED000B90B0000FA0B0000390C0000720C000066
:102EE000A70C0000D60C0000FF0C0000220D000013
:102EF000410D00005A0D00006F0D00008D0D000007
:102F0000A00D0000AB0D00007C050000B305000023
:102F100030060000C30600006E0700002F08000006
:102F200001090000DE0900004E0A0000BC0A000092
:102F3000280B00008F0B0000F20B00004E0C00006D
:102F4000A40C0000F20C0000380D0000760D00000B
:102F5000AD0D0000DD0D0000050E0000280E000084
:102F60005D0E0000800E0000980E00009B0800001F
:102F7000AE080000DD080000190900006409000027
:102F8000C00900002D0A0000AA0A0000ED0A000096
:102F9000310B0000750B0000B90B0000FA0B0000AC
:102FA000390C0000720C0000A70C0000D60C0000C9
:102FB000FF0C0000220D0000410D00005A0D000022
:102FC0006F0D00008D0D0000A00D0000AB0D000086
:102FD00092080000A0080000AF080000C008000030
:102FE000D3080000E8080000FF08000034090000D2
:102FF00075090000C20900001C0A0000810A0000D7
:10300000EF0A0000280B0000620B00009C0B000080
:10301000D50B00000C0C0000410C0000720C0000ED
:10302000A00C0000CA0C0000F00C0000110D000004
:103030002E0D0000470D00005D0D00007E0D00000C
:10304000950D0000A30D0000120600002D060000E3
:103050006D060000BE060000220700009C0700006D
:1030600030080000DD0800003C090000A009000055
:10307000090A0000740A0000E00A00004B0B00007F
:10308000B50B00001A0C00007A0C0000D30C0000F5
:10309000250D00006F0D0000B00D0000E90D0000CF
:1030A000430E0000820E0000AC0E00006F0700000F
:1030B0006107000052070000410700002E070000D2
:1030C0001907000002070000CD0600008C06000072
:1030D0003F060000E5050000800500001205000025
:1030E000D90400009F040000650400002C040000C7
:1030F000F5030000C00300008F030000610300001F
:103100003703000011030000F0020000D3020000AA
:10311000BA020000A4020000830200006C0200005A
:103120005E020000210F0000040F0000BE0E000030
:10313000600E0000E30D00003C0D0000640C000078
:10314000500B0000AF0A0000FF0900004109000019
:1031500078080000A8070000D4060000010600005F
:103160003305000070040000BC03000018030000D9
:1031700087020000090200009F010000FD0000001E
:103180009300000052000000000700000E0900003C
:103190001C1B000012150000383F000036310000F3
:1031A000242300002A2D0000707700007E790000A3
:1031B0006C6B000062650000484F00004641000053
:1031C000545300005A5D0000E0E70000EEE9000003
:1031D000FCFB0000F2F50000D8DF0000D6D10000B3
:1031E000C4C30000CACD0000909700009E99000063
:1031F0008C8B000082850000A8AF0000A6A1000013
:10320000B4B30000BABD0000C7C00000C9CE0000C2
:10321000DBDC0000D5D20000FFF80000F1F6000072
:10322000E3E40000EDEA0000B7B00000B9BE000022
:10323000ABAC0000A5A200008F88000081860000D2
:10324000939400009D9A000027200000292E000082
:103250003B3C0000353200001F1800001116000032
:10326000030400000D0A000057500000595E0000E2
:103270004B4C0000454200006F6800006166000092
:10328000737400007D7A0000898E00008780000042
:10329000959200009B9C0000B1B60000BFB80000F2
:1032A000ADAA0000A3A40000F9FE0000F7F00000A2
:1032B000E5E20000EBEC0000C1C60000CFC8000052
:1032C000DDDA0000D3D40000696E00006760000002
:1032D000757200007B7C0000515600005F580000B2
:1032E0004D4A000043440000191E00001710000062
:1032F000050200000B0C0000212600002F28000012
:103300003D3A0000333400004E49000040470000C1
:10331000525500005C5B000076710000787F000071
:103320006A6D0000646300003E3900003037000021
:10333000222500002C2B000006010000080F0000D1
:103340001A1D000014130000AEA90000A0A7000081
:10335000B2B50000BCBB000096910000989F000031
:103360008A8D000084830000DED90000D0D70000E1
:10337000C2C50000CCCB0000E6E10000E8EF000091
:10338000FAFD0000F4F3000001010000649B00005E
:103390007A010000689B00007B0100006C9B00002C
:1033A0007C010000709B00007D010000749B000008
:1033B0007E010000789B00007F0100007C9B0000E4
:1033C00081010000809B000020010000849B000020
:1033D0002D010000889B0000030000008C9B000072
:1033E000F0010000909B0000F1010000949B0000A0
:1033F000F8010000989B0000FB1300009C9B00005C
:10340000FC010000A09B0000EF030000889B00006F
:10341000F2030000889B0000FD040000889B000070
:1034200030030000889B00001A030000889B000006
:10343000E1020000889B000079020000A49B0000CC
:103440001B020000A89B00003B020000AC9B000098
:103450004A020000B09B000057020000B49B00002D
:103460005D020000B89B00006B020000BC9B0000E6
:1034700099050000C09B00009A060000C49B000054
:103480009B140000C89B00009E100000CC9B000015
:10349000AD0D0000D09B0000F6030000889B0000EB
:1034A000E6050000D49B0000E7050000D89B000063
:1034B000E5030000DC9B0000D4990000D8990000CF
:1034C000DC990000E0990000E4990000E899000010
:1034D000EC990000F0990000F4990000F8990000C0
:1034E000200100008F01000000000000200100000A
:1034F0008F010000000000004E560000494400000B
:1035000049410000303000002D3000003031000013
:1035100000000000CA0000001F00000000020400BC
:103520000000000070090000AA090000E209000084
:103530008C090000C6090000640B0000FE090000B1
:10354000640B0000640B0000640B0000640B0000BF
:10355000640B0000640B0000640B0000640B0000AF
:10356000640B0000640B0000640B0000640B00009F
:10357000640B0000640B0000640B0000640B00008F
:10358000640B0000640B0000640B0000640B00007F
:10359000640B0000640B0000640B0000640B00006F
:1035A000640B0000640B0000640B0000640B00005F
:1035B000640B0000640B0000640B0000640B00004F
:1035C000640B0000640B0000640B0000640B00003F
:1035D000640B0000640B0000640B0000640B00002F
:1035E000640B0000640B0000640B0000640B00001F
:1035F000640B0000640B0000640B0000640B00000F
:10360000640B0000640B0000640B0000640B0000FE
:10361000640B0000640B0000640B0000640B0000EE
:10362000640B0000640B0000640B0000640B0000DE
:10363000640B0000640B0000640B0000640B0000CE
:10364000640B0000640B0000640B0000640B0000BE
:10365000640B0000640B0000640B000020070000F6
:10366000640B0000640B0000640B0000640B00009E
:10367000640B0000640B0000640B00002A0B0000C8
:10368000640B0000100B0000640B0000640B0000D2
:10369000640B0000640B0000640B0000640B00006E
:1036A000640B0000640B0000640B0000640B00005E
:1036B000640B0000640B0000640A0000640B00004F
:1036C000640B0000640B0000640B0000640B00003E
:1036D000640B0000640B0000640B0000640B00002E
:1036E000640B0000640B0000640B0000640B00001E
:1036F000640B0000A0060000640B0000960A0000A6
:10370000C80A0000640B0000640B0000640B00009A
:10371000640B0000640B0000640B0000640B0000ED
:10372000640B0000640B000056030000640B0000F3
:10373000640B0000640B0000640B0000640B0000CD
:10374000640B0000640B0000640B00003C090000E7
:1037500056090000640B0000640B0000640B0000BD
:10376000640B0000640B0000640B0000640B00009D
:10377000640B0000640B0000640B0000640B00008D
:10378000640B0000640B0000640B0000640B00007D
:10379000640B0000640B0000640B0000640B00006D
:1037A000640B0000640B0000640B0000640B00005D
:1037B000640B0000640B0000640B0000640B00004D
:1037C000640B0000640B0000640B0000640B00003D
:1037D000640B0000640B0000640B0000640B00002D
:1037E000640B0000640B0000640B0000640B00001D
:1037F000640B0000640B0000640B0000640B00000D
:10380000640B0000640B0000640B0000640B0000FC
:10381000640B0000640B0000640B0000640B0000EC
:10382000640B0000640B0000640B0000640B0000DC
:10383000640B0000640B0000640B00000000FE003D
:103840000000FE0000020000000200001F00000057
:10385000EF0023000EFF24000E018800000000008E
:10386000000020000000E000020032000001200003
:103870002002880014000700C80407000000E000D0
:1038800003003A00C05A2100010020000200370066
:103890000000200001002000810F700001003200B4
:1038A0000F000700000020000000E00002003200CE
:1038B0000000020000000000724102000000000051
:1038C0000040DA000000FE00200020000000E000C0
:1038D0000200320010002000900188000000060065
:1038E000A1028800800478000000EB001F00370070
:1038F000E284440054A0B4009905BA00E284440074
:1039000054A0B4009906BA00E284440054A0B40064
:103910000006EB00476FDE00FD07B200AE01880035
:10392000636CE10003003A000AD801000000EB00DC
:103930000E003700606CE10008003A00004DEB001B
:103940000A05E800020039003420EC000AF0A0006B
:103950008B05E900F9FF3E00040037006168E100D3
:10396000010032000086EB000B00070019C7BA0007
:103970001905BA000E04E00003003A000A00E00056
:10398000DBFF3A0000000600FE07B200AE0288002E
:103990008A047800F5FF37000CD0A300E20F4D0039
:1039A0001C003B0089027800354DBA000A05E8008A
:1039B000020039003420EC000AF0A0008B05E90079
:1039C0000F003200254DBA000A05E8000200390058
:1039D0003420EC000AF0A0008B05E900080032005A
:1039E0000C00E0000600320015CDBA000A05E80020
:1039F000020039003420EC000AF0A0008B05E90039
:103A00008984E80054A0B4000B00E000E2FF3A0013
:103A1000000006009902BA00055D78008B05E900F8
:103A2000F7FF3200C82ADE00055D78008B05E9004B
:103A3000F3FF32000C00E000F1FF320019DDBA00A4
:103A4000EEFF370000000000000000000000000052
:103A50000000000000000000000000000000000066
:103A60000000000000000000000000000000000056
:103A70000000000000000000000000000000000046
:103A80000000000000000000000000000000000036
:103A90000000000000000000000000000000000026
:103AA0000000000000000000000000000000000016
:103AB0000000000000000000000000000000000006
:103AC00000000000000000000000000000000000F6
:103AD00000000000000000000000000000000000E6
:103AE00000000000000000000000000000000000D6
:103AF0000000000000000000000000003600F80098
:103B0000809FBE00829FBE00849FBE00869FBE0035
:103B10003200F8003400F80010002000A0018800F6
:103B20001000200000D0FE00435B8000E3B8880056
:103B3000605B8000E0B1880050BA880041732100CA
:103B4000110178004302DE00020242004311DE0050
:103B50000201520082087800615D21001104E0003A
:103B600002003200F0B8880001003700F2B8880087
:103B7000805C21001004E0003A003200F0B88000C0
:103B800050AF8800019F210082B22100120178000D
:103B900091004100E29E210092804000025F2100DE
:103BA0009280400031AF880002003B00615E21003E
:103BB0008008EB0031AF800041AF880000805000EA
:103BC000E0AE8800A11A2000810F500003003400ED
:103BD00001007800E0AE88000500370061E52F00A5
:103BE000810F500002003D0001007800E0AE880027
:103BF0002165210011007800A0B288000065210035
:103C00009001780083087800E164210011017800B8
:103C100002087800E0AE800080087800810420006F
:103C2000810F5000060034006E014100820F5000E9
:103C300003003400408A21001064A0001B003700FC
:103C4000D1022000810F5000030034009003B00027
:103C5000808F510015003400408A21001064A100BB
:103C600012003700205F21000008EB00408A21008D
:103C70001064A1001074A10053AF8800209F2100A0
:103C8000E15E2100910078001080400030AF880094
:103C900002003B00605E21000008EB0031AF8000B5
:103CA00041AF8800C05D21000008EB0041602100A9
:103CB0001100E8008008780021602100910F500079
:103CC0000600390002E0FE00408A21009A1C07002D
:103CD00000E0FE00406021000008EB00406C210085
:103CE0001004E00041003200305D21000048EB008C
:103CF000805C210011C0B30090CF10005B003A003F
:103D0000408A2100104078000068A300570032006C
:103D100071B28000A0B28000A20220000001410028
:103D2000828F500051003400525C21001204E000E8
:103D30004E003A0093B88000B2452000828F5100B7
:103D40004A003E00A3B88000828F510047003E0029
:103D500062AF800013112400830F510043003E0026
:103D60000080500020B288000000400002014000A6
:103D7000F30F200001002300114078008348610008
:103D80004811DE001000230010427800024878003D
:103D90001181FB001082FB004822DD00040171004C
:103DA0002400230094427800034A61004812DE0098
:103DB0003200230092427800044978009180FB0091
:103DC0001080FB004800DD000080700041002300EF
:103DD0001141780083486000C800DE0050002300D5
:103DE000104178000148780020003700D05C2100A5
:103DF0001004E0001B003200805C210011C0B30001
:103E000090CF100017003A0051B18000F010200050
:103E1000808F500010003E00F0B88000C187210064
:103E2000910F50000400360011C0B300305D210036
:103E30000148780005003700E1872100910F50000C
:103E400002003100305D21000048EB00A06221003B
:103E50001008E80005003700305D21000048EB0045
:103E600002003700305D21000048EB0060AF8000A9
:103E7000C0AF8800D15C21001104E00038003A0096
:103E8000015D21001104E0001E00320091B88000A5
:103E9000B0452000808F500085003E00A1B8800012
:103EA000808F500082003E00805D21001004E00001
:103EB00009003200E08E21009040780031C9B30043
:103EC00001487800F08E210090407800F1C6B300E0
:103ED0000148780008003700E08E2100904078000B
:103EE00031C9B30001487800F08E2100904078007D
:103EF000F1C6B30001487800005D21000048EB00E6
:103F00005700370092B88000814D2000810F51008A
:103F100003003E00A2B88000810F5100500036001F
:103F200081702200810F50004D00360012C0B30096
:103F3000015D210082487800C600DE0001005000CB
:103F4000E18E210011417800804878004800DE00B1
:103F5000F18E210011417800804878003D00370043
:103F6000015D21001104E0002100320091B88000C1
:103F7000704D2000808F50004D003E00A1B88000A1
:103F8000808F50004A003E0040B280000000E000F8
:103F900047003A00805D21001004E0000900320073
:103FA000E08E21009040780031C9B30001487800CC
:103FB000F08E210090407800F1C6B30001487800EF
:103FC00008003700E08E21009040780031C9B3002E
:103FD00001487800F08E210090407800F1C6B300CF
:103FE00001487800005D21000048EB001C0037000C
:103FF00092B88000115D2000810F510006003E0044
:10400000A2B88000810F510003003E0041B2800041
:104010000100E0001200320081702200810F500088
:104020000F00360012C0B300015D21008248780005
:10403000C600DE0001005000E18E21001141780031
:10404000804878004800DE00F18E210011417800A0
:1040500000060000000200001F00000080487800F9
:10406000005D21001004E00014003A00805D210092
:104070001004E00009003200E08E2100904078003A
:1040800031C9B30001487800F08E210090407800DB
:10409000F1C6B3000148780008003700E08E210027
:1040A0009040780031C9B30001487800F08E2100BB
:1040B00090407800F1C6B3000148780030B280002B
:1040C00081642100910F50000400320040B288004A
:1040D000A06421000008EB000F0037000000E000A2
:1040E0000B003200A16421001100E8008008780074
:1040F00031062000810F5000070036000000EB0061
:1041000030B2880040B2880050B288000200370008
:10411000A06421000008EB0060B08000FD0F50009B
:1041200003003E0070B08000FD0F50000C00360010
:1041300011C0B3005099210001487800B000200060
:1041400010060700E06A21001004E00008003A00B1
:1041500011C0B300006D2100014878000400370051
:104160003CE3A80072E3A800A8E3A800DEE3A800EF
:1041700008C8A90028C8A8000F28A9003400F90021
:104180003200F9004F03BE004F02BE004F01BE00D7
:104190004F00BE003600F900004006003600F8006F
:1041A000809FBE00829FBE00849FBE00869FBE008F
:1041B0003200F8003400F80010002000A001880050
:1041C0001000200000D0FE0060618000D0B88800A0
:1041D0007061800010B9880001618000B1B888006A
:1041E00040618000C0B888002274210092017800EC
:1041F00081804100C319DE008380500001097800EE
:10420000C308DE0061B98800417421001101780003
:10421000000041004311DE000200500080087800D9
:104220004300DE0070B988002061800090B88800EB
:10423000C0608000A0B88800B060800000B988002D
:1042400098150700CB1907001C130700FA1907007F
:10425000C06D21001004E000020032000048EB00B5
:1042600004003700330A070011C0B300C06D2100FD
:1042700001487800070707000D88A9003400F900FD
:104280003200F9004F03BE004F02BE004F01BE00D6
:104290004F00BE003600F900004006003600F8006E
:1042A000809FBE00829FBE00849FBE00869FBE008E
:1042B000E0B8800021882100910F500008003100F3
:1042C000315D21001104E00005003A000000EB0020
:1042D00070CF8800515C2100804878000B003700C7
:1042E00001882100910F500003003E00305D210045
:1042F0001004E0000500320060F52F0070CF880048
:1043000011C0B300505C210001487800C05C21005E
:104310001004E00015003200D05C21001004E00021
:1043200012003200F1B8800020892100908F5000E7
:1043300011003600E0B8800041892100910F500043
:104340000400310011C0B300305C21000148780046
:104350000C00370061892100910F500006003600E3
:10436000305C21000048EB000F003700305C21007A
:104370000048EB000C003700305C21001004E00026
:1043800009003200C1AF800070702200808F5000A1
:1043900003003E0080702200C0AF8800020037009A
:1043A000305C21000048EB00C0AF8000C0B0880046
:1043B00001B08000810F5000060031001000200085
:1043C00060B2880030002000D0B08800C1B0880002
:1043D00008003700E15F2100910F5000050039000F
:1043E000D0B080000000E00005003A00C064210069
:1043F0000008EB00D0B080000000E00002003200B6
:10440000A16121008008E900D6180700A05C210006
:104410001004E00002003200C21807000400370058
:10442000809921001004E00001003A00C51807003F
:10443000C0B0800051992100810F500007003E005C
:1044400030F9260000238800901A8800401C88005C
:10445000F01D8800A01F8800050037000023880099
:10446000901A8800401C8800F01D8800A01F88005A
:10447000409921001004E00009003A0060B2800079
:104480000000E00006003A00605C21001004E0003B
:1044900003003200505C21001004E00014003200E0
:1044A000E1B08000611A8800C11D8800F0B0800072
:1044B000101C8800701F8800711A8800201C88005A
:1044C000D11D8800801F8800C0B080000000D1008E
:1044D000A01A88002E63A8006463A8009A63A8004D
:1044E000D063A80028C8A90008C8A9007300370035
:1044F000C0B0800031B08000810F50000200390050
:1045000041B088000100370040B0880001B1800050
:104510000100E00039003200020A2000828F5000C2
:1045200011003A00E2B08000621A8800C21D8800C3
:10453000F1B08000111C8800711F88000361210008
:1045400013005000701A8800206121008360210050
:104550009301780010805100201C8800D21D880033
:10456000811F88004B003700020B2000828F500013
:1045700011003A00E2B08000621A8800C21D880073
:10458000F1B08000111C8800711F8800721A880029
:10459000211C88000161210011005000D01D8800FD
:1045A000206121008160210091007800108050007E
:1045B000801F880037003700E1B08000611A880052
:1045C000C11D8800F1B08000111C8800711F880097
:1045D0000161210011005000701A88002161210042
:1045E000826021001201780091005100211C880096
:1045F000D01D8800811F880026003700E1B08000B0
:10460000611A8800C11D8800F1B08000111C88006B
:10461000711F880091B180000100E000130032009A
:104620000161210011005000A0B18800216121002A
:10463000826021001201780091005100B1B1880020
:104640004201DE0002005000701A88004209DE00BC
:1046500082805000211C8800D01D8800811F8800A6
:10466000206321000008EB000A00370001612100EF
:1046700011005000701A8800216121008260210021
:104680001201780091005100211C8800D01D880083
:10469000811F8800C0B080000000D100A01A8800EF
:1046A00028C8A90008C8A9002E63A8006463A80050
:1046B0009A63A800D063A8003C64A8004F03BE0022
:1046C0004F02BE004F01BE004F00BE003600F90091
:1046D000004006003600F800809FBE00829FBE00AA
:1046E000849FBE00869FBE00EF0D07001048A90002
:1046F0004F03BE004F02BE004F01BE004F00BE0080
:104700003600F900004006003600F800809FBE0029
:10471000829FBE00849FBE00869FBE00081A0700CD
:104720001068A9004F03BE004F02BE004F01BE003B
:104730004F00BE003600F900004006003600F800C9
:10474000809FBE00829FBE00849FBE00869FBE00E9
:10475000C028A9000000EB00431C07004F03BE0067
:104760004F02BE004F01BE004F00BE003600F900F0
:10477000004006003600F800809FBE00829FBE0009
:10478000849FBE00869FBE00321C0700C048A9005F
:1047900010002000341C07004F03BE004F02BE0073
:1047A0004F01BE004F00BE003600F9000040060079
:1047B0003600F800809FBE00829FBE00849FBE002E
:1047C000869FBE00C068A90020002000261C0700AC
:1047D0004F03BE004F02BE004F01BE004F00BE009F
:1047E0003600F900004006003600F800809FBE0049
:1047F000829FBE00849FBE00869FBE00C088A90025
:1048000030002000181C07004F03BE004F02BE00FE
:104810004F01BE004F00BE003600F9000040060008
:104820003600F800809FBE00829FBE00849FBE00BD
:10483000869FBE00C608A900700020000A1C070061
:104840004F03BE004F02BE004F01BE004F00BE002E
:104850003600F900004006003600F800000A0000AB
:10486000000200001F000000809FBE00829FBE006B
:10487000849FBE00869FBE00C508AB0003003200C7
:10488000C508A900C0002000FA1B0700C4A8AB009F
:1048900003003200C4A8A90090002000F51B070007
:1048A000C488AB0003003200C488A900A000200027
:1048B000F01B0700C408AB0003003200C408A900C5
:1048C000B0002000EB1B0700FFFF37003600F800A8
:1048D000809FBE00829FBE00849FBE00869FBE0058
:1048E0003200F8003400F80010002000A001880019
:1048F0001000200000D0FE00706180003181800037
:104900000100E00001003200010001000D88A90053
:104910003400F9003200F9004F03BE004F02BE0020
:104920004F01BE004F00BE003600F90000400600F7
:104930003600F800809FBE00829FBE00849FBE00AC
:10494000869FBE003200F8003400F80010002000FE
:10495000A00188001000200000D0FE0080608000D0
:10496000218180000100E00001003200010001000F
:104970000BA8A9003400F9003200F9004F03BE0073
:104980004F02BE004F01BE004F00BE003600F900CE
:10499000004006003600F800809FBE00829FBE00E7
:1049A000849FBE00869FBE003200F8003400F800ED
:1049B00010002000A00188001000200000D0FE00A0
:1049C00090618000118180000100E0000100320050
:1049D000010001000DC8A9003400F9003200F900FF
:1049E0004F03BE004F02BE004F01BE004F00BE008D
:1049F0003600F900004006003600F800809FBE0037
:104A0000829FBE00849FBE00869FBE003200F800D9
:104A10003400F80010002000A001880010002000E1
:104A200000D0FE00A0618000018180000100E00054
:104A300001003200010001000DE8A9003400F90076
:104A40003200F9004F03BE004F02BE004F01BE000E
:104A50004F00BE003600F900004006003200F800AA
:104A60003400F800881F780018002000A801880092
:104A70001800200008D0FE004F0478003400F90030
:104A80003200F900004006003600F800809FBE00AA
:104A9000829FBE00849FBE00869FBE00E417070071
:104AA0000A08A9004F03BE004F02BE004F01BE001E
:104AB0004F00BE003600F900004006003600F80046
:104AC000809FBE00829FBE00849FBE00869FBE0066
:104AD000D217070009C8A9004F03BE004F02BE004D
:104AE0004F01BE004F00BE003600F9000040060036
:104AF0003600F800809FBE00829FBE00849FBE00EB
:104B0000869FBE00208380000000E000010032008C
:104B10000000010008C8A9004F03BE004F02BE00FC
:104B20004F01BE004F00BE003600F90000400600F5
:104B30000040DA000000FE00839F68000100E000F2
:104B400002003D0060001000E08018000300E0005B
:104B500002003D0060011100E0811900050007001E
:104B60004F00E00002003B0060001000E0801800F1
:104B7000000006006022B800060220000000D000FD
:104B80008180D2000482D2008582D2000000A00081
:104B90000202520083825A000300310002024200E6
:104BA00083824A000000A1000603E900F3FF3A00F7
:104BB0000000060000000500F03F2F003023B60083
:104BC0009C23B60031A3A9003183A9009DA3A900AD
:104BD0009D83A9000000060021AE21001100E8001D
:104BE00080087800E90F500094003600010078003A
:104BF0000008EB0030B38000C18E21001181FB0062
:104C0000D18E21009180FB00C808DD008100710079
:104C1000810F500055003200C18E21001181FB0030
:104C2000D18E21009180FB00C808DD008100710059
:104C3000810F50001F003400C18E21009180FB00C5
:104C4000D28E21001281FB004811DD00028170002C
:104C500001B3800002814000820F50000D0034003B
:104C6000C28E21001282FB00D08E21009081FB00B9
:104C7000C819DD00830172008180410092417800F3
:104C800001497800C808DE0010417800014878002A
:104C900036003700C18E210011417800804878002D
:104CA0004800DE00D18E2100114178008048780054
:104CB0002E003700C18E21001181FB00D18E210012
:104CC0009180FB00C808DD0081007100810F500059
:104CD0001F003D0001B38000C28E21009281FB00C5
:104CE000D28E21001281FB004811DD00028171008B
:104CF00080814000828F51000D003D00C28E210056
:104D00001282FB00D08E21009081FB00C819DD00CB
:104D1000830172008180510092417800014978003E
:104D2000C808DE0010417800014878000F00370005
:104D3000C18E210011417800804878004800DE00D3
:104D4000D18E21001141780080487800070037009B
:104D5000C18E210011417800804878004800DE00B3
:104D6000D18E2100114178008048780021B3800065
:104D70000101780000B08000808F500015003200E3
:104D800008003600E165210011004000800F51004D
:104D90000200360000B088000E00370002B0880024
:104DA0000C003700808F500009003100F3B2800002
:104DB00081804100810F5000030036000160210016
:104DC000830850000300370002B08800010037005C
:104DD00001B0880011B3800001017800F0AF8000BD
:104DE000808F50001500320008003600C165210098
:104DF00011004000800F510002003600F0AF880023
:104E00000E003700F2AF88000C003700808F500092
:104E100009003100E3B2800081804100810F500021
:104E200003003600E15F21008308500003003700D3
:104E3000F2AF880001003700F1AF880000000600E3
:104E4000C07521001004E0000D00320040D6800043
:104E5000E30F50000A003A00E07521001004E00062
:104E60000400320011C0B300805C210001487800CA
:104E70002A003700805C21000048EB002700370043
:104E8000805C21001004E0000D0032000160200071
:104E9000006F210090804000E06E2100908F500054
:104EA00004003900E1B8800000892100908F500093
:104EB0001A003600805C21000048EB001700370024
:104EC00080B7800071B78000810F5000030036006A
:104ED000E2AD21000109500002003700E2AD2100DF
:104EE0000089500001602500810F50000B00360042
:104EF000D1AF800020862100908F5000070036003F
:104F0000F1D6800050262000808F500003003E0024
:104F100011C0B300805C2100014878000000060049
:104F2000106B21001004E00001003200774EA80051
:104F300076AEA900E06C21001004E0000900320008
:104F4000907F21001004E00006003A00E06A210092
:104F50001004E00007003A00406B21001004E0005C
:104F600004003A001000200070D6880080AC2100B8
:104F70000008EB000000060076AEA9002099210091
:104F80001004E00003003200907F21001004E000D4
:104F90000200320080AC21000008EB000000060097
:104FA000106B21001004E00001003200774EA800D1
:104FB00076AEA900E06C21001004E0000900320088
:104FC000907F21001004E00006003A00E06A210012
:104FD0001004E0000A003A00406B21001004E000D9
:104FE00007003A001000200070D6880080AC210035
:104FF0000008EB005230EF005430EF001C00370087
:1050000070D68000E40F500011003E0094828000B2
:10501000A582800061014200E0814A0092828800FE
:10502000A3828800357E2500850F5100E08F59004E
:105030000F003600E1AC21008008E80080AC2100C0
:105040000008EB005230EF005430EF00080037004A
:105050005230EF005430EF005000200040D688005E
:105060003FEEA90011C0B300000E000000020000D6
:105070001F000000506C210001487800000006006D
:1050800076AEA900907F21001004E00005003200F8
:105090004E30EF005030EF0080AC21000008EB00F4
:1050A0000E00370072828000838280006100410020
:1050B000E08049007082880081828800337E25006C
:1050C000830F5000E08F58000400360080AC2100B0
:1050D0000008EB004E30EF005030EF0000000600FB
:1050E000889FBE0060D78000EA0F50003D00360068
:1050F0000004EB0068D788008044EB00605C21006E
:105100000848780076EEA9005B2EA800206C2100EC
:105110000948780068080700D8AF8800805C210043
:10512000094878004099210011C0B30090CF1000C9
:1051300003003A005000200040D688002B003700C2
:105140005099210011C0B30090CF1000040032002C
:105150008099210090CF100007003A00030037002B
:105160003FEEA800506C21000048EB0070002000CA
:1051700040D688001D003700209921001004E0006F
:10518000030032006000200040D68800170037007E
:10519000E06C21001004E00003003200406B2100AD
:1051A0001004E0000C003A0020D780000000E0006E
:1051B000060032003FEEA800506C21000048EB00D2
:1051C0007000200040D688000800370080AC210025
:1051D0000008EB00050037005000200040D6880092
:1051E00002003700C1AE21008008E8004F04BE0075
:1051F00000000600889FBE008A9FBE008C9FBE00F4
:105200008E1F7800209921001004E0000F0032006A
:105210003FEEA90011C0B300506C21000148780096
:105220006000200040D688000000EB0000D7880016
:105230006011B80042D7880053D78800C0D28800D8
:1052400082D2880093D28800E9003700406B2100A9
:1052500013C0B30090CF11009F003A00E06A210014
:1052600090CF11009C003A00E06C210090CF11001B
:1052700099003A00106B21001004E00096003A00FB
:105280006022B80044D7880055D78800D06A210032
:105290001004E00014003A0002A5210014002000D0
:1052A0000500200032004200A2804A000089BE00B2
:1052B00042A52100B20F5000A28F58000F00360007
:1052C00010002000C0D288006000B80080D28800A2
:1052D00091D2880080DE2F0001002000A0D288003B
:1052E000B1D288000500370080A521000008EB003E
:1052F0006011B80082D2880093D28800E0D280008A
:105300000000E00012003A00D0D28000B1D42100A9
:10531000810F500008003600A0A521000008EB0016
:1053200010002000E0D288003FEEA900516C21005F
:1053300080487800AE0037003FEEA800516C210095
:105340008048EB00A1A521008008E800A8003700F4
:105350003FEEA90011C0B300506C21000148780055
:10536000D06A210090CF100007003200C0D2800028
:10537000E10F50000400320071B78000008025006A
:10538000808F50009A003600774EA900999921002D
:105390000044EB00884C7800AA992100084D780061
:1053A0004B992100884D78005C992100084E7800C7
:1053B0007D992100884E78008E992100084F780051
:1053C000006D210008487800B1922100F1AF8800FB
:1053D0002086210000B08800C28E21009241780012
:1053E00043CAB30003497800D28E2100924178006D
:1053F00073C1B3000349780011B3880020B388005B
:10540000407A210030B38800AB070700EDFD0700AC
:105410003CE3A80072E3A800A8E3A800DEE3A8002C
:105420000000EB0000AF880010B2880020B28800B6
:1054300050B18800D0AF8800715C210080487800AE
:10544000815C21008848780000D78800884C78006B
:10545000084D7800884D7800084E7800884E780016
:10546000084F7800215C2100884878001100200056
:10547000E1AF880070AF8800C25C21000849780065
:10548000925C210008497800C0D688006022B800EC
:1054900044D7880055D7880035C3800005C38800ED
:1054A00020D7880060BD880010BD8800C0D2880069
:1054B0006011B80082D2880093D2880020002000BA
:1054C00040D68800907F21000848780076AEA8007A
:1054D00091B188004600370080A521000008EB004C
:1054E0006022B80084D2880095D2880071B780000D
:1054F00000802500808F50001400360040D78000C7
:1055000051D78000851A2600850F5000E08F580083
:10551000050036003FEEA90011C0B300506C210019
:10552000014878000F0037003FEEA800526C2100C0
:105530000049EB0082AE210014002000050020008D
:105540000419400005914800060037003FEEA8000E
:10555000506C21000048EB006000B80040D7880084
:1055600051D78800406B21001004E00020003A0071
:10557000E06A21001004E0001D003A00506D210097
:105580001004E0001800320001AE21001100E80014
:1055900080087800319C2000810F500014003600F4
:1055A0000040EB004199210080487800519921008A
:1055B0008048780071992100804878008199210005
:1055C000804878009199210080487800A1992100B5
:1055D00080487800516D21008048780000AE21009D
:1055E0000008EB000200370000AE21000008EB00CD
:1055F0004F0778004F06BE004F05BE004F04BE00A7
:105600000000060011C0B300206C210001487800A2
:1056100031B88000E0AE2300808F500003003600D8
:1056200040002000E0AF880002003700500020005A
:10563000E0AF880005FE07004099210011C0B300CB
:1056400090CF1000030032005099210090CF10003D
:1056500005003A00605C21000048EB00400020009B
:1056600040D6880041003700E06C21001004E000C3
:1056700003003200406B21001004E00005003A00F6
:10568000605C21000048EB004000200040D688000C
:1056900036003700D0AF8000C15F2100910040008C
:1056A00002862100928F500004003100825C2100AC
:1056B00013C0B30092CF11001D003A00E006200095
:1056C000E0B2880000072000F0B288003007200018
:1056D00000B388008070220010B388004067220069
:1056E00020B388004061220030B3880072B7800088
:1056F0004211DE0060C1800071C180009F0507007B
:1057000080AF8800C0AE21000008EB003000200010
:1057100040D688005B2EA9006000B80050D68800F3
:1057200061D6880080D6880091D688000D003700A9
:10573000E40F500008003E0012C0B300615C21007D
:1057400082487800A15F21008008E8003000200036
:1057500010B0880003003700D1AF8800100020008F
:1057600010B08800D1AF800071AF88000000060043
:10577000889FBE008044EB00005D2100094878004E
:10578000774EA800406C210009487800605C210039
:10579000094878000004EB00A8D68800B8D6880035
:1057A000C506070098AF8800B8AF8800D8AF88005A
:1057B00008AF8800705C21000848780000232000B2
:1057C00080B0880090B08800B1922100F1AF8800CD
:1057D0002086210000B0880008B28800F8B1880057
:1057E000C28E21009241780043CAB3000349780079
:1057F000D28E21009241780073C1B3000349780032
:1058000011B3880020B38800407A210030B38800AB
:1058100038B2880048B2880058B2880078CF880033
:1058200068B0880078B0880018B1880028B1880076
:105830006000B80080D6880091D68800805C210086
:1058400009487800905C210009487800D05C21006C
:1058500009487800106D210000C8EB00C8D6880008
:10586000D8D68800E8D688003000200010B0880024
:10587000907F210000120000000200001F000000C5
:105880000948780076AEA9005B2EA80008D78800EA
:1058900040B620007D16070040B62000C216070063
:1058A000206C210009487800E8D28800D8D288000E
:1058B000C8D288006000B80080D2880091D28800E9
:1058C00040D7880051D7880018D7880068D788004B
:1058D000D8B088001000200040D688004F04BE00D9
:1058E000000006000000EB0020D788001100200017
:1058F00071D688006011B80052D6880063D688003F
:1059000082D6880093D68800E0D6880002352C0025
:1059100003002000A2D28800B3D288006011B80032
:1059200082D2880093D28800C0D2880040D68800F6
:105930000000060020D780000000E00011003200C7
:1059400031B8800080352400808F50000A003E006E
:1059500061AE21001100E80080087800813E20003F
:10596000810F50000F0036000000EB0020D78800A8
:1059700030D788000B00370060AE21000008EB0034
:105980000800370031B8800090352400808F500027
:10599000040036001000200020D7880060AE2100EF
:1059A0000008EB000000060011BD80000100E000CF
:1059B00001003A0010BD8800000006004099210057
:1059C0001004E00004003A008099210011C0B300E7
:1059D00090CF100010003A000040EB00416C210015
:1059E00080487800615C21008048780076EEA9004C
:1059F00040AD21000008EB006011B80052D68800CD
:105A000063D6880082D6880093D6880040002000A4
:105A100040D6880096003700209921001004E0004D
:105A200004003A00509921001004E00092003A006E
:105A3000110037000040EB00416C210080487800E5
:105A4000615C21008048780040AD21000008EB0037
:105A50006022B80054D6880065D6880084D68800B5
:105A600095D688004000200040D68800A000200085
:105A7000CDFF07007E003700E06C21001004E0003D
:105A800003003200406B21001004E00015003A00D2
:105A90000040EB00416C210080487800615C2100EF
:105AA000804878000000EB0060D78800A0D688000E
:105AB0006000B80050D6880061D6880080D6880083
:105AC00091D68800406B21001004E00002003A00EB
:105AD00090002000B4FF07004000200040D688005E
:105AE00063003700406C21001004E0001F003A0002
:105AF00081B78000009D2100908F50000E0036007D
:105B000060AD21000008EB0041AD21001100E8006C
:105B100080087800311F2000810F500013003600EC
:105B200011C0B300406C21000148780040AD210055
:105B30000008EB000D00370040AD21000008EB002D
:105B400061AD21001100E80080087800F1F9200023
:105B5000810F50000500360011C0B300809921006C
:105B60000148780060AD21000008EB00905C210046
:105B70001004E00005003A0080AD21000008EB00B1
:105B800011C0B300905C21000148780070D68000FD
:105B90000000E0000F003200A2AC21001400200041
:105BA0000500200032004200A2804A000089BE00A9
:105BB000756D2D00850F5000E08F580005003600F0
:105BC000E0AC21000008EB006000B80050D688006F
:105BD00061D6880060B0800011B18000808F5000D5
:105BE00004003A0022B18000E1602100910F5100D1
:105BF0000600320010B1880071B0800021B1880029
:105C00006011B80082D6880093D6880010B1800059
:105C10000000E00003003A0020B180000000E00036
:105C20001300320002AD2100140020000500200006
:105C300032004200A2804A000089BE00E20F5000FC
:105C4000E08F58000A0036000000EB0060B08800CA
:105C500070B0880010B1880020B188006011B800D1
:105C600082D6880093D68800016D21008048780094
:105C700079FC0700000006000040EB00416C2100A9
:105C800080487800615C21008048780040AD2100A8
:105C90000008EB006022B80054D6880065D6880062
:105CA00084D6880095D688004000200040D6880021
:105CB000EFFF370040D68000E30F50007B003A0032
:105CC000C07521001004E0000300320001BE800016
:105CD000F0BD80000D00370051C38000C0A021003E
:105CE000E286210012017800100051008263210039
:105CF00012005000C26C210012417800136D210087
:105D0000934F1100010032008249780082AF800079
:105D1000800F510046003200D25C21001204E000E6
:105D200005003200C2122000E2AF8800E2632100C9
:105D30000009EB0027003700426C21001204E0004C
:105D40000500320032002000E2AF8800E26321004B
:105D50000009EB001F00370033B88000E2AE2300DB
:105D6000828F51000300360062002000E2AF8800FD
:105D70000900370083B7800002302600828F51006F
:105D80000300360032002000E2AF88000200370036
:105D900092002000E2AF880083B780000230260026
:105DA000828F510009003600827021000318200004
:105DB0001281410083D08000828F510003003600A1
:105DC00052002000F2B1880002003700E263210097
:105DD0000009EB00036421001301E8008209780048
:105DE000E3632100930F5100200039000264210079
:105DF0000009EB0082AF8000E3AF800003024000A7
:105E0000840F510003003600005F21000308510099
:105E10001600370002814100820F50000200360058
:105E200082AF88001100370080AF88000F00370074
:105E3000C05C21001004E00009003A00805C2100F1
:105E40001004E00006003200406C21001004E00065
:105E50000300320012C0B300C05C21000248780089
:105E600012C0B300D05C21000248780070AF8000FF
:105E7000810F50000F0032000181E800820F5000B6
:105E800003003600E15E21008088E9000900370048
:105E90000080E800808F50000200360070AF88005C
:105EA0000400370071AF880002003700C05C210099
:105EB0000048EB000000060040D68000E20F5000D2
:105EC0000A003A00C1AD21001100E8008008780006
:105ED000E50F50001500360010DA800000000100C8
:105EE000C0AD21000008EB0010003700A2AD21007A
:105EF0009200E80001097800F38F50000700360097
:105F000000004000E1B32100008040001000780054
:105F100000000100A0AD21000008EB0040D6800089
:105F2000E30F500001003A0031FB070000000600BB
:105F300080AC21001080E900E10F50002000360005
:105F4000507521001004E0002000320090762100FE
:105F50001004E0001F003A008000EB0061B08800F0
:105F600071B0880011B1880021B188006011B800BB
:105F700082D6880093D688000040EB0092992100D9
:105F800001497800A19921008048780041992100B9
:105F9000804878005199210080487800719921004B
:105FA00080487800819921008048780010C0B300B3
:105FB0009176210080487800917F21008048780008
:105FC000507521001004E00002003A009076210094
:105FD0000048EB00000006002C19000060000000E3
:105FE00082000000F005E40005D10500C405610051
:105FF000E3A5E30027E4A000E4BF0500AE069D0092
:1060000009000000F005E40005D10500C4056100A9
:10601000E3A5E30027E4A000E4BF0500AE069D0071
:106020000900000032063200063206003206A300E4
:10603000FFA3FF00A3FFA300FF000000000000007B
:1060400000000000071307001307130007130B00DD
:10605000000B00000B000B0000000000000000001F
:106060000000000000180000A400000080000000F4
:106070008C19000052000000800000005217000040
:1060800000160000000200001F000000AE0000002B
:10609000800000003E1B0000120000008200000093
:1060A0007E11C0000EC810009E1236000E5C0D005E
:1060B000880D9C000D060E00C81A00002600000086
:1060C000800000004E10000008000000800000006A
:1060D000A2160000B0000000800000005E1000006A
:1060E0000200000080000000501B000010000000B3
:1060F000800000002C1A00003A0000008000000020
:10610000561000000400000080000000C2150000CE
:10611000E0000000800000005A10000004000000B1
:1061200080000000DE1900004E000000800000002A
:1061300060100000020000008000000066100000F7
:106140005C0500008200000000000000000000006C
:10615000000000000000000000000000000000003F
:10616000000000000000000000000000000000002F
:10617000000000000000000000000000000000001F
:10618000000000000000000000000000000000000F
:1061900000000000000000000000000000030000FC
:1061A00002000100000100000000000000000000EB
:1061B000FFFFFF00FFFEFF00FEFFFE00FFFDFF00F0
:1061C000FDFFFD00FFFDFF00FDFFFD00FFFDFF00E7
:1061D000FDFFFD00FFFEFF00FEFFFE00FFFFFF00D2
:1061E000FFFF0000000100000100020000020000AB
:1061F000020005000004000003000200000100008E
:106200000000FF00FFFEFF00FDFFFD00FFFCFF00A0
:10621000FCFFFB00FFFBFF00FBFFFB00FFFBFF00A1
:10622000FBFFFB00FFFBFF00FBFFFC00FFFCFF0090
:10623000FDFFFD00FFFEFF00000003000003000063
:10624000030003000004000009000700000500002F
:106250000300020000000000FEFFFD00FFFCFF0045
:10626000FAFFF900FFF8FF00F7FFF400FFF4FF006A
:10627000F4FFF400FFF4FF00F6FFF700FFF8FF0063
:10628000F8FFF900FFFBFF00FDFFFF00FF0100002A
:1062900003000500000700000700070000100000D1
:1062A0000E000C00000A00000A00080000060000B2
:1062B0000300000000FDFF00FAFFF700FFF4FF00FD
:1062C000F2FFF000FFF0FF00F0FFF200FFF4FF002C
:1062D000F6FFF800FFFAFF00FCFF000000030000DB
:1062E00006000900000C00000E000E000010000067
:1062F00010001000000E00000C000A000008000052
:106300000800040000000000FDFFFA00FFF7FF0096
:10631000F4FFF200FFEFFF00ECFFEC00FFECFF00EA
:10632000EFFFF200FFF4FF00F7FFF900FFFCFF00B2
:10633000000003000006000009000C00000E000031
:106340000E001000001000001600130000100000E6
:106350000D000A00000700000400000000FDFF001F
:10636000F9FFF600FFF3FF00F0FFED00FFEBFF0089
:10637000EAFFED00FFF0FF00F3FFF600FFF9FF007A
:10638000FDFF00000003000007000A00000D0000F0
:106390000D001000001300001600160000000000A1
:1063A00000000000000000000000000000000000ED
:1063B00000000000000000000000000000000000DD
:1063C00000000000000000000000000000000000CD
:1063D00000000000000000000000000000000000BD
:1063E00000000000000000000000000000000000AD
:1063F0000000030000020000020001000000000095
:106400000000000000FFFF00FFFFFE00FFFEFF0096
:10641000FEFFFD00FFFDFF00FDFFFD00FFFDFF0093
:10642000FDFFFD00FFFDFF00FDFFFE00FFFEFF0082
:10643000FEFFFF00FFFFFF00000001000001000061
:10644000020002000002000005000400000300003A
:106450000200010000000000FFFFFE00FFFDFF0042
:10646000FDFFFC00FFFCFF00FBFFFB00FFFBFF004C
:10647000FBFFFB00FFFBFF00FBFFFB00FFFBFF0040
:10648000FCFFFC00FFFDFF00FDFFFE00FF00000021
:1064900003000300000300000300040000090000E3
:1064A00007000500000300000200000000FEFF00DE
:1064B000FDFFFC00FFFAFF00F9FFF700FFF4FF000B
:1064C000F2FFF200FFF2FF00F2FFF200FFF4FF0024
:1064D000F7FFF800FFF8FF00F9FFFB00FFFDFF00EA
:1064E000FFFF010000030000050007000007000097
:1064F00007001000000E00000C000A00000A000057
:1065000008000600000300000000FD00FFFAFF0085
:10651000F7FFF400FFF2FF00F0FFF000FFF0FF00D4
:10652000F2FFF400FFF6FF00F8FFFA00FFFCFF00A7
:10653000000003000006000009000C00000E00002F
:106540000E0010000010000010000E00000C0000F3
:106550000A000800000800000400000000FDFF0021
:10656000FAFFF700FFF4FF00F2FFEF00FFECFF007F
:10657000ECFFEC00FFEFFF00F2FFF400FFF7FF007D
:10658000F9FFFC00FF000000030006000009000006
:106590000C000E00000E000010001000001600009D
:1065A00013001000000D00000A00070000040000A6
:1065B0000000FD00FFF9FF00F6FFF300FFF0FF0011
:1065C000EDFFEB00FFEAFF00EDFFF000FFF3FF003F
:1065D000F6FFF900FFFDFF000000030000070000C8
:1065E0000A000D00000D000010001300001600004E
:1065F0001600000000000000000000000000000085
:10660000000000000000000000000000000000008A
:10661000000000000000000000000000000000007A
:10662000000000000000000000000000000000006A
:10663000000000000000000000000000000000005A
:106640000000000000000000030002000002000043
:1066500001000000000000000000FF00FFFEFF003E
:10666000FEFFFD00FFFDFF00FDFFFD00FFFDFF0041
:10667000FCFFFC00FFFCFF00FDFFFD00FFFDFF0035
:10668000FDFFFD00FFFEFF00FFFF00000001000016
:1066900002000200000200000200020000060000EA
:1066A00004000300000200000100000000FFFF00E2
:1066B000FEFFFD00FFFCFF00FBFFFB00FFFAFF00F9
:1066C000FAFFFA00FFF9FF00F9FFF900FFFAFF00F7
:1066D000FAFFFA00FFFBFF00FBFFFC00FFFFFF00DB
:1066E0000000020000040000040004000004000098
:1066F000040008000006000005000300000100007F
:106700000000FF00FFFDFF00F9FFF900FFF9FF00A7
:10671000F9FFF900FFF8FF00F8FFF700FFF7FF00AF
:10672000F7FFF800FFF8FF00F9FFF900FFFAFF009C
:10673000FBFFFC00FFFFFF0002000300000300005E
:106740000300050000060000080007000005000027
:106750000300020000000000FFFFFC00FFF8FF0044
:10676000F6FFF600FFF6FF00F6FFF600FFF6FF006B
